{"abi":[{"type":"constructor","inputs":[{"name":"anEntryPoint","type":"address","internalType":"contract INonceManager"}],"stateMutability":"nonpayable"},{"type":"function","name":"NAME","inputs":[],"outputs":[{"name":"","type":"string","internalType":"string"}],"stateMutability":"view"},{"type":"function","name":"UPGRADE_INTERFACE_VERSION","inputs":[],"outputs":[{"name":"","type":"string","internalType":"string"}],"stateMutability":"view"},{"type":"function","name":"VERSION","inputs":[],"outputs":[{"name":"","type":"string","internalType":"string"}],"stateMutability":"view"},{"type":"function","name":"domainSeparator","inputs":[],"outputs":[{"name":"","type":"bytes32","internalType":"bytes32"}],"stateMutability":"view"},{"type":"function","name":"encodeMessageDataForSafe","inputs":[{"name":"safe","type":"address","internalType":"contract Safe"},{"name":"message","type":"bytes","internalType":"bytes"}],"outputs":[{"name":"","type":"bytes","internalType":"bytes"}],"stateMutability":"view"},{"type":"function","name":"getChainId","inputs":[],"outputs":[{"name":"","type":"uint256","internalType":"uint256"}],"stateMutability":"view"},{"type":"function","name":"getMessageHash","inputs":[{"name":"message","type":"bytes","internalType":"bytes"}],"outputs":[{"name":"","type":"bytes32","internalType":"bytes32"}],"stateMutability":"view"},{"type":"function","name":"getMessageHashForSafe","inputs":[{"name":"safe","type":"address","internalType":"contract Safe"},{"name":"message","type":"bytes","internalType":"bytes"}],"outputs":[{"name":"","type":"bytes32","internalType":"bytes32"}],"stateMutability":"view"},{"type":"function","name":"getModules","inputs":[],"outputs":[{"name":"","type":"address[]","internalType":"address[]"}],"stateMutability":"view"},{"type":"function","name":"getNonce","inputs":[{"name":"sender","type":"address","internalType":"address"},{"name":"key","type":"uint192","internalType":"uint192"}],"outputs":[{"name":"nonce","type":"uint256","internalType":"uint256"}],"stateMutability":"view"},{"type":"function","name":"getUserOpHash","inputs":[{"name":"userOp","type":"tuple","internalType":"struct UserOperation","components":[{"name":"sender","type":"address","internalType":"address"},{"name":"nonce","type":"uint256","internalType":"uint256"},{"name":"initCode","type":"bytes","internalType":"bytes"},{"name":"callData","type":"bytes","internalType":"bytes"},{"name":"callGasLimit","type":"uint256","internalType":"uint256"},{"name":"verificationGasLimit","type":"uint256","internalType":"uint256"},{"name":"preVerificationGas","type":"uint256","internalType":"uint256"},{"name":"maxFeePerGas","type":"uint256","internalType":"uint256"},{"name":"maxPriorityFeePerGas","type":"uint256","internalType":"uint256"},{"name":"paymasterAndData","type":"bytes","internalType":"bytes"},{"name":"signature","type":"bytes","internalType":"bytes"}]}],"outputs":[{"name":"","type":"bytes32","internalType":"bytes32"}],"stateMutability":"view"},{"type":"function","name":"handleOps","inputs":[{"name":"ops","type":"tuple[]","internalType":"struct UserOperation[]","components":[{"name":"sender","type":"address","internalType":"address"},{"name":"nonce","type":"uint256","internalType":"uint256"},{"name":"initCode","type":"bytes","internalType":"bytes"},{"name":"callData","type":"bytes","internalType":"bytes"},{"name":"callGasLimit","type":"uint256","internalType":"uint256"},{"name":"verificationGasLimit","type":"uint256","internalType":"uint256"},{"name":"preVerificationGas","type":"uint256","internalType":"uint256"},{"name":"maxFeePerGas","type":"uint256","internalType":"uint256"},{"name":"maxPriorityFeePerGas","type":"uint256","internalType":"uint256"},{"name":"paymasterAndData","type":"bytes","internalType":"bytes"},{"name":"signature","type":"bytes","internalType":"bytes"}]},{"name":"beneficiary","type":"address","internalType":"address payable"}],"outputs":[],"stateMutability":"nonpayable"},{"type":"function","name":"incrementNonce","inputs":[{"name":"key","type":"uint192","internalType":"uint192"}],"outputs":[],"stateMutability":"nonpayable"},{"type":"function","name":"initialize","inputs":[{"name":"anOwner","type":"address","internalType":"address"}],"outputs":[],"stateMutability":"nonpayable"},{"type":"function","name":"isValidSignature","inputs":[{"name":"_dataHash","type":"bytes32","internalType":"bytes32"},{"name":"_signature","type":"bytes","internalType":"bytes"}],"outputs":[{"name":"","type":"bytes4","internalType":"bytes4"}],"stateMutability":"view"},{"type":"function","name":"isValidSignature","inputs":[{"name":"_data","type":"bytes","internalType":"bytes"},{"name":"_signature","type":"bytes","internalType":"bytes"}],"outputs":[{"name":"","type":"bytes4","internalType":"bytes4"}],"stateMutability":"view"},{"type":"function","name":"nonceSequenceNumber","inputs":[{"name":"","type":"address","internalType":"address"},{"name":"","type":"uint192","internalType":"uint192"}],"outputs":[{"name":"","type":"uint256","internalType":"uint256"}],"stateMutability":"view"},{"type":"function","name":"onERC1155BatchReceived","inputs":[{"name":"","type":"address","internalType":"address"},{"name":"","type":"address","internalType":"address"},{"name":"","type":"uint256[]","internalType":"uint256[]"},{"name":"","type":"uint256[]","internalType":"uint256[]"},{"name":"","type":"bytes","internalType":"bytes"}],"outputs":[{"name":"","type":"bytes4","internalType":"bytes4"}],"stateMutability":"pure"},{"type":"function","name":"onERC1155Received","inputs":[{"name":"","type":"address","internalType":"address"},{"name":"","type":"address","internalType":"address"},{"name":"","type":"uint256","internalType":"uint256"},{"name":"","type":"uint256","internalType":"uint256"},{"name":"","type":"bytes","internalType":"bytes"}],"outputs":[{"name":"","type":"bytes4","internalType":"bytes4"}],"stateMutability":"pure"},{"type":"function","name":"onERC721Received","inputs":[{"name":"","type":"address","internalType":"address"},{"name":"","type":"address","internalType":"address"},{"name":"","type":"uint256","internalType":"uint256"},{"name":"","type":"bytes","internalType":"bytes"}],"outputs":[{"name":"","type":"bytes4","internalType":"bytes4"}],"stateMutability":"pure"},{"type":"function","name":"owner","inputs":[],"outputs":[{"name":"","type":"address","internalType":"address"}],"stateMutability":"view"},{"type":"function","name":"proxiableUUID","inputs":[],"outputs":[{"name":"","type":"bytes32","internalType":"bytes32"}],"stateMutability":"view"},{"type":"function","name":"renounceOwnership","inputs":[],"outputs":[],"stateMutability":"nonpayable"},{"type":"function","name":"simulate","inputs":[{"name":"targetContract","type":"address","internalType":"address"},{"name":"calldataPayload","type":"bytes","internalType":"bytes"}],"outputs":[{"name":"response","type":"bytes","internalType":"bytes"}],"stateMutability":"nonpayable"},{"type":"function","name":"supportsInterface","inputs":[{"name":"interfaceId","type":"bytes4","internalType":"bytes4"}],"outputs":[{"name":"","type":"bool","internalType":"bool"}],"stateMutability":"view"},{"type":"function","name":"tokensReceived","inputs":[{"name":"","type":"address","internalType":"address"},{"name":"","type":"address","internalType":"address"},{"name":"","type":"address","internalType":"address"},{"name":"","type":"uint256","internalType":"uint256"},{"name":"","type":"bytes","internalType":"bytes"},{"name":"","type":"bytes","internalType":"bytes"}],"outputs":[],"stateMutability":"pure"},{"type":"function","name":"transferOwnership","inputs":[{"name":"newOwner","type":"address","internalType":"address"}],"outputs":[],"stateMutability":"nonpayable"},{"type":"function","name":"upgradeToAndCall","inputs":[{"name":"newImplementation","type":"address","internalType":"address"},{"name":"data","type":"bytes","internalType":"bytes"}],"outputs":[],"stateMutability":"payable"},{"type":"event","name":"Initialized","inputs":[{"name":"version","type":"uint64","indexed":false,"internalType":"uint64"}],"anonymous":false},{"type":"event","name":"OwnershipTransferred","inputs":[{"name":"previousOwner","type":"address","indexed":true,"internalType":"address"},{"name":"newOwner","type":"address","indexed":true,"internalType":"address"}],"anonymous":false},{"type":"event","name":"Upgraded","inputs":[{"name":"implementation","type":"address","indexed":true,"internalType":"address"}],"anonymous":false},{"type":"error","name":"AddressEmptyCode","inputs":[{"name":"target","type":"address","internalType":"address"}]},{"type":"error","name":"ERC1967InvalidImplementation","inputs":[{"name":"implementation","type":"address","internalType":"address"}]},{"type":"error","name":"ERC1967NonPayable","inputs":[]},{"type":"error","name":"FailedInnerCall","inputs":[]},{"type":"error","name":"InvalidInitialization","inputs":[]},{"type":"error","name":"NotInitializing","inputs":[]},{"type":"error","name":"OwnableInvalidOwner","inputs":[{"name":"owner","type":"address","internalType":"address"}]},{"type":"error","name":"OwnableUnauthorizedAccount","inputs":[{"name":"account","type":"address","internalType":"address"}]},{"type":"error","name":"ReentrancyGuardReentrantCall","inputs":[]},{"type":"error","name":"UUPSUnauthorizedCallContext","inputs":[]},{"type":"error","name":"UUPSUnsupportedProxiableUUID","inputs":[{"name":"slot","type":"bytes32","internalType":"bytes32"}]}],"bytecode":{"object":"0x60c0604052306080523480156200001557600080fd5b506040516200343c3803806200343c83398101604081905262000038916200010a565b6001600160a01b03811660a0526200004f62000056565b506200013c565b7ff0c57e16840df040f15088dc2f81fe391c3923bec73e23a9662efc9c229c6a00805468010000000000000000900460ff1615620000a75760405163f92ee8a960e01b815260040160405180910390fd5b80546001600160401b0390811614620001075780546001600160401b0319166001600160401b0390811782556040519081527fc7f505b2f371ae2175ee4913f4499e1f2633a7b5936321eed1cdaeb6115181d29060200160405180910390a15b50565b6000602082840312156200011d57600080fd5b81516001600160a01b03811681146200013557600080fd5b9392505050565b60805160a0516132c56200017760003960008181610ae60152611261015260008181611497015281816114c001526115f901526132c56000f3fe6080604052600436106101b65760003560e01c80636ac24784116100ec578063bc197c811161008a578063f23a6e6111610064578063f23a6e6114610564578063f2fde38b14610591578063f698da25146105b1578063ffa1ad74146105c657600080fd5b8063bc197c81146104f5578063bd61951d14610524578063c4d66de81461054457600080fd5b8063a3f4df7e116100c6578063a3f4df7e14610446578063a619353114610482578063ad3cb1cc146104a2578063b2494df3146104d357600080fd5b80636ac24784146103ca578063715018a6146103ea5780638da5cb5b146103ff57600080fd5b80631fad948c116101595780633408e470116101335780633408e4701461036f57806335567e1a146103825780634f1ef286146103a257806352d1902d146103b557600080fd5b80631fad948c1461030257806320c13b0b14610322578063230316401461034257600080fd5b80630bd28e3b116101955780630bd28e3b14610245578063150b7a02146102655780631626ba7e146102aa5780631b2e01b8146102ca57600080fd5b806223de29146101bb57806301ffc9a7146101e25780630a1028c414610217575b600080fd5b3480156101c757600080fd5b506101e06101d636600461236c565b5050505050505050565b005b3480156101ee57600080fd5b506102026101fd366004612432565b6105f7565b60405190151581526020015b60405180910390f35b34801561022357600080fd5b50610237610232366004612512565b610649565b60405190815260200161020e565b34801561025157600080fd5b506101e061026036600461255d565b610655565b34801561027157600080fd5b50610291610280366004612578565b630a85bd0160e11b95945050505050565b6040516001600160e01b0319909116815260200161020e565b3480156102b657600080fd5b506102916102c53660046125ea565b610660565b3480156102d657600080fd5b506102376102e5366004612635565b600260209081526000928352604080842090915290825290205481565b34801561030e57600080fd5b506101e061031d3660046126ae565b61071e565b34801561032e57600080fd5b5061029161033d366004612704565b61085d565b34801561034e57600080fd5b5061036261035d366004612767565b6109a3565b60405161020e91906127fc565b34801561037b57600080fd5b5046610237565b34801561038e57600080fd5b5061023761039d366004612635565b610ab5565b6101e06103b0366004612767565b610b53565b3480156103c157600080fd5b50610237610b72565b3480156103d657600080fd5b506102376103e5366004612767565b610b8f565b3480156103f657600080fd5b506101e0610baa565b34801561040b57600080fd5b507f9016d09d72d40fdae2fd8ceac6b6234c7706214fd39c1cd1e609a0528c199300546040516001600160a01b03909116815260200161020e565b34801561045257600080fd5b506103626040518060400160405280601081526020016f436f6d6d756e697479204d6f64756c6560801b81525081565b34801561048e57600080fd5b5061023761049d36600461280f565b610bbe565b3480156104ae57600080fd5b50610362604051806040016040528060058152602001640352e302e360dc1b81525081565b3480156104df57600080fd5b506104e8610c00565b60405161020e919061284a565b34801561050157600080fd5b50610291610510366004612897565b63bc197c8160e01b98975050505050505050565b34801561053057600080fd5b5061036261053f366004612934565b610c7b565b34801561055057600080fd5b506101e061055f36600461296f565b610cc5565b34801561057057600080fd5b5061029161057f36600461298c565b63f23a6e6160e01b9695505050505050565b34801561059d57600080fd5b506101e06105ac36600461296f565b610deb565b3480156105bd57600080fd5b50610237610e26565b3480156105d257600080fd5b5061036260405180604001604052806005815260200164302e302e3160d81b81525081565b60006001600160e01b03198216630271189760e51b148061062857506001600160e01b03198216630a85bd0160e11b145b8061064357506001600160e01b031982166301ffc9a760e01b145b92915050565b60006106433383610b8f565b61065d610f26565b50565b60408051602080820186905282518083039091018152818301928390526320c13b0b60e01b9092526000913391839183916320c13b0b916106a79189908990604401612a30565b602060405180830381865afa1580156106c4573d6000803e3d6000fd5b505050506040513d601f19601f820116820180604052508101906106e89190612a60565b90506001600160e01b031981166320c13b0b60e01b14610709576000610712565b630b135d3f60e11b5b925050505b9392505050565b610726610f81565b816107875760405162461bcd60e51b815260206004820152602660248201527f41413432206e65656473206174206c65617374206f6e652075736572206f70656044820152653930ba34b7b760d11b60648201526084015b60405180910390fd5b8160005b8181101561082d57368585838181106107a6576107a6612a7d565b90506020028101906107b89190612a93565b905080356020820135604081901c906107d2848484610fcb565b600080806107eb6107e66060890189612ab4565b611032565b9250925092506107fa87611065565b6108068787868861119e565b61080f8761128f565b61081b868484846113d8565b8760010197505050505050505061078b565b505061085860017f9b779b17422d0df92223018b32b4d1fa46e071723d6817e2486d003becc55f0055565b505050565b6000338161086b82866109a3565b8051602082012085519192509060000361093057604051635ae6bd3760e01b8152600481018290526001600160a01b03841690635ae6bd3790602401602060405180830381865afa1580156108c4573d6000803e3d6000fd5b505050506040513d601f19601f820116820180604052508101906108e89190612afa565b60000361092b5760405162461bcd60e51b815260206004820152601160248201527012185cda081b9bdd08185c1c1c9bdd9959607a1b604482015260640161077e565b610991565b60405163934f3a1160e01b81526001600160a01b0384169063934f3a119061096090849086908a90600401612b13565b60006040518083038186803b15801561097857600080fd5b505afa15801561098c573d6000803e3d6000fd5b505050505b506320c13b0b60e01b95945050505050565b606060007f60b3cbf8b4a223d68d641b3b6ddf9a298e7f33710cf3d3a9d1146b5a6150fbca60001b83805190602001206040516020016109ed929190918252602082015260400190565b604051602081830303815290604052805190602001209050601960f81b600160f81b856001600160a01b031663f698da256040518163ffffffff1660e01b8152600401602060405180830381865afa158015610a4d573d6000803e3d6000fd5b505050506040513d601f19601f82011682018060405250810190610a719190612afa565b6040516001600160f81b0319938416602082015292909116602183015260228201526042810182905260620160405160208183030381529060405291505092915050565b604051631aab3f0d60e11b81526001600160a01b0383811660048301526001600160c01b03831660248301526000917f0000000000000000000000000000000000000000000000000000000000000000909116906335567e1a90604401602060405180830381865afa158015610b2f573d6000803e3d6000fd5b505050506040513d601f19601f820116820180604052508101906107179190612afa565b610b5b61148c565b610b6482610655565b610b6e8282611531565b5050565b6000610b7c6115ee565b5060008051602061325083398151915290565b6000610b9b83836109a3565b80519060200120905092915050565b610bb2610f26565b610bbc6000611637565b565b6000610bc9826116a8565b6040805160208101929092523090820152466060820152608001604051602081830303815290604052805190602001209050919050565b604051636617c22960e11b815260016004820152600a60248201526060903390600090829063cc2f845290604401600060405180830381865afa158015610c4b573d6000803e3d6000fd5b505050506040513d6000823e601f3d908101601f19168201604052610c739190810190612b49565b509392505050565b606060405163b4faba0960e01b8152600436036004808301376020600036836000335af1505060203d036040519150808201604052806020833e5060005161071757805160208201fd5b7ff0c57e16840df040f15088dc2f81fe391c3923bec73e23a9662efc9c229c6a008054600160401b810460ff1615906001600160401b0316600081158015610d0a5750825b90506000826001600160401b03166001148015610d265750303b155b905081158015610d34575080155b15610d525760405163f92ee8a960e01b815260040160405180910390fd5b845467ffffffffffffffff191660011785558315610d7c57845460ff60401b1916600160401b1785555b610d85866116c1565b610d8d6116d2565b610d956116da565b610d9d6116ea565b8315610de357845460ff60401b19168555604051600181527fc7f505b2f371ae2175ee4913f4499e1f2633a7b5936321eed1cdaeb6115181d29060200160405180910390a15b505050505050565b610df3610f26565b6001600160a01b038116610e1d57604051631e4fbdf760e01b81526000600482015260240161077e565b61065d81611637565b60007f8b73c3c69bb8fe3d512ecc4cf759cc79239f7b179b0ffacaa9a75d522b39400f60001b6040518060400160405280601081526020016f436f6d6d756e697479204d6f64756c6560801b815250604051602001610e859190612c0c565b6040516020818303038152906040528051906020012060405180604001604052806005815260200164302e302e3160d81b815250604051602001610ec99190612c0c565b60405160208183030381529060405280519060200120610ee64690565b604080516020810195909552840192909252606083015260808201523060a082015260c00160405160208183030381529060405280519060200120905090565b33610f587f9016d09d72d40fdae2fd8ceac6b6234c7706214fd39c1cd1e609a0528c199300546001600160a01b031690565b6001600160a01b031614610bbc5760405163118cdaa760e01b815233600482015260240161077e565b7f9b779b17422d0df92223018b32b4d1fa46e071723d6817e2486d003becc55f00805460011901610fc557604051633ee5aeb560e01b815260040160405180910390fd5b60029055565b6000610fd78383610ab5565b90508360200135811461102c5760405162461bcd60e51b815260206004820152601a60248201527f4141323520696e76616c6964206163636f756e74206e6f6e6365000000000000604482015260640161077e565b50505050565b6000806060818080611047876004818b612c1e565b8101906110549190612c48565b919750955093505050509250925092565b60046110746060830183612ab4565b905010156110bc5760405162461bcd60e51b81526020600482015260156024820152744141323620696e76616c69642063616c6c6461746160581b604482015260640161077e565b60006110cb6060830183612ab4565b6110da91600491600091612c1e565b6110e391612ca0565b90506001600160e01b0319811661113c5760405162461bcd60e51b815260206004820152601e60248201527f4141323720696e76616c69642066756e6374696f6e2073656c6563746f720000604482015260640161077e565b60035460e01b6001600160e01b031990811690821614610b6e5760405162461bcd60e51b815260206004820152601e60248201527f4141323720696e76616c69642066756e6374696f6e2073656c6563746f720000604482015260640161077e565b6001600160401b0382161580156111b45750823b155b156111c3576111c3848461176c565b6111d5846111d086610bbe565b6119c1565b6112185760405162461bcd60e51b815260206004820152601460248201527320a0991a1039b4b3b730ba3ab9329032b93937b960611b604482015260640161077e565b604080516001600160c01b0383166024808301919091528251808303909101815260449091019091526020810180516001600160e01b0316630bd28e3b60e01b179052611288847f00000000000000000000000000000000000000000000000000000000000000006000846113d8565b5050505050565b600061129a82611aca565b90506000816001600160a01b031663f465c77e846112b7866116a8565b60006040518463ffffffff1660e01b81526004016112d793929190612d15565b6000604051808303816000875af11580156112f6573d6000803e3d6000fd5b505050506040513d6000823e601f3d908101601f1916820160405261131e9190810190612e77565b91505060008061132d83611b9d565b90925090506001600160a01b038216156113805760405162461bcd60e51b815260206004820152601460248201527320a0999a1039b4b3b730ba3ab9329032b93937b960611b604482015260640161077e565b80156112885760405162461bcd60e51b815260206004820152602160248201527f41413332207061796d61737465722065787069726564206f72206e6f742064756044820152606560f81b606482015260840161077e565b600080856001600160a01b0316635229073f86868660006040518563ffffffff1660e01b815260040161140e9493929190612ebd565b6000604051808303816000875af115801561142d573d6000803e3d6000fd5b505050506040513d6000823e601f3d908101601f191682016040526114559190810190612f23565b9150915081610de357805160208201fd5b60017f9b779b17422d0df92223018b32b4d1fa46e071723d6817e2486d003becc55f0055565b306001600160a01b037f000000000000000000000000000000000000000000000000000000000000000016148061151357507f00000000000000000000000000000000000000000000000000000000000000006001600160a01b0316611507600080516020613250833981519152546001600160a01b031690565b6001600160a01b031614155b15610bbc5760405163703e46dd60e11b815260040160405180910390fd5b816001600160a01b03166352d1902d6040518163ffffffff1660e01b8152600401602060405180830381865afa92505050801561158b575060408051601f3d908101601f1916820190925261158891810190612afa565b60015b6115b357604051634c9c8ce360e01b81526001600160a01b038316600482015260240161077e565b60008051602061325083398151915281146115e457604051632a87526960e21b81526004810182905260240161077e565b6108588383611bf0565b306001600160a01b037f00000000000000000000000000000000000000000000000000000000000000001614610bbc5760405163703e46dd60e11b815260040160405180910390fd5b7f9016d09d72d40fdae2fd8ceac6b6234c7706214fd39c1cd1e609a0528c19930080546001600160a01b031981166001600160a01b03848116918217845560405192169182907f8be0079c531659141344cd1fd0a4f28419497f9722a3daafe3b4186f6b6457e090600090a3505050565b60006116b382611c46565b805190602001209050919050565b6116c9611d19565b61065d81611d62565b610bbc611d19565b6116e2611d19565b610bbc611d6a565b6040516116f6906122f2565b604051809103906000f080158015611712573d6000803e3d6000fd5b50600180546001600160a01b0319166001600160a01b03929092169190911790556040805160608101909152603680825261321a602083013980516020909101206003805463ffffffff191660e09290921c919091179055565b36600061177c6040850185612ab4565b909250905060148110156117ca5760405162461bcd60e51b81526020600482015260156024820152744141313720696e76616c696420696e6974436f646560581b604482015260640161077e565b60006117d96014828486612c1e565b6117e291612f66565b60601c9050803b6118445760405162461bcd60e51b815260206004820152602660248201527f4141313620696e76616c696420666163746f7279206f7220646f6573206e6f7460448201526508195e1a5cdd60d21b606482015260840161077e565b600154604051632b870d1b60e11b81526000916001600160a01b03169063570e1a36906118779087908790600401612f99565b6020604051808303816000875af1158015611896573d6000803e3d6000fd5b505050506040513d601f19601f820116820180604052508101906118ba9190612fad565b90506001600160a01b0385166119125760405162461bcd60e51b815260206004820152601b60248201527f4141313320696e6974436f6465206661696c6564206f72204f4f470000000000604482015260640161077e565b806001600160a01b0316856001600160a01b0316146119735760405162461bcd60e51b815260206004820181905260248201527f4141313420696e6974436f6465206d7573742072657475726e2073656e646572604482015260640161077e565b803b610de35760405162461bcd60e51b815260206004820181905260248201527f4141313520696e6974436f6465206d757374206372656174652073656e646572604482015260640161077e565b60006119cc83611d72565b7f19457468657265756d205369676e6564204d6573736167653a0a3332000000006000908152601c839052603c8120611a4790611a0d610140870187612ab4565b8080601f016020809104026020016040519081016040528093929190818152602001838380828437600092019190915250611e2392505050565b9050611a56602085018561296f565b6040516317aa5fb760e11b81526001600160a01b0383811660048301529190911690632f54bf6e90602401602060405180830381865afa158015611a9e573d6000803e3d6000fd5b505050506040513d601f19601f82011682018060405250810190611ac29190612fca565b949350505050565b60003681611adc610120850185612ab4565b90925090506014811015611b325760405162461bcd60e51b815260206004820152601b60248201527f4141333620696e76616c6964207061796d617374657220646174610000000000604482015260640161077e565b6000611b416014828486612c1e565b611b4a91612f66565b60601c9050803b611ac25760405162461bcd60e51b815260206004820152601b60248201527f41413330207061796d6173746572206e6f74206465706c6f7965640000000000604482015260640161077e565b60008082600003611bb357506000928392509050565b6000611bbe84612089565b9050806040015165ffffffffffff16421180611be55750806020015165ffffffffffff1642105b905194909350915050565b611bf9826120fa565b6040516001600160a01b038316907fbc7cd75a20ee27fd9adebab32041f755214dbc6bffa90cc0225b39da2e5c2d3b90600090a2805115611c3e57610858828261215f565b610b6e6121d5565b6060813560208301356000611c66611c616040870187612ab4565b6121f4565b90506000611c7a611c616060880188612ab4565b9050608086013560a087013560c088013560e08901356101008a01356000611ca9611c616101208e018e612ab4565b604080516001600160a01b039c909c1660208d01528b81019a909a5260608b019890985250608089019590955260a088019390935260c087019190915260e08601526101008501526101208401526101408084019190915281518084039091018152610160909201905292915050565b7ff0c57e16840df040f15088dc2f81fe391c3923bec73e23a9662efc9c229c6a0054600160401b900460ff16610bbc57604051631afcd79f60e31b815260040160405180910390fd5b610df3611d19565b611466611d19565b6000611d7d826116a8565b600081815260208181526040918290208251918201909252905460ff16158015825291925090611e065760405162461bcd60e51b815260206004820152602e60248201527f557365724f7048616e646c65723a20555345525f4f5045524154494f4e5f414c60448201526d149150511657d1561150d555115160921b606482015260840161077e565b506000908152602081905260409020805460ff1916600117905550565b60008151604114611e8a5760405162461bcd60e51b815260206004820152603a602482015260008051602061327083398151915260448201527f3a20696e76616c6964207369676e6174757265206c656e677468000000000000606482015260840161077e565b600082604081518110611e9f57611e9f612a7d565b016020015160f81c90506000611eb58482612207565b90506000611ec4856020612207565b90507f7fffffffffffffffffffffffffffffff5d576e7357a4501ddfe92f46681b20a0811115611f4a5760405162461bcd60e51b815260206004820152603d602482015260008051602061327083398151915260448201527f3a20696e76616c6964207369676e6174757265202773272076616c7565000000606482015260840161077e565b8260ff16601b14158015611f6257508260ff16601c14155b15611fc35760405162461bcd60e51b815260206004820152603d602482015260008051602061327083398151915260448201527f3a20696e76616c6964207369676e6174757265202776272076616c7565000000606482015260840161077e565b60408051600081526020810180835288905260ff851691810191909152606081018390526080810182905260019060a0016020604051602081039080840390855afa158015612016573d6000803e3d6000fd5b5050604051601f1901519450506001600160a01b0384166120805760405162461bcd60e51b8152602060048201526030602482015260008051602061327083398151915260448201526f1d1024a72b20a624a22fa9a4a3a722a960811b606482015260840161077e565b50505092915050565b60408051606081018252600080825260208201819052918101919091528160a081901c65ffffffffffff81166000036120c5575065ffffffffffff5b604080516060810182526001600160a01b03909316835260d09490941c602083015265ffffffffffff16928101929092525090565b806001600160a01b03163b60000361213057604051634c9c8ce360e01b81526001600160a01b038216600482015260240161077e565b60008051602061325083398151915280546001600160a01b0319166001600160a01b0392909216919091179055565b6060600080846001600160a01b03168460405161217c9190612c0c565b600060405180830381855af49150503d80600081146121b7576040519150601f19603f3d011682016040523d82523d6000602084013e6121bc565b606091505b50915091506121cc85838361226d565b95945050505050565b3415610bbc5760405163b398979f60e01b815260040160405180910390fd5b6000604051828085833790209392505050565b6000612214826020612fe5565b835110156122645760405162461bcd60e51b815260206004820181905260248201527f72656164427974657333323a20696e76616c69642064617461206c656e677468604482015260640161077e565b50016020015190565b6060826122825761227d826122c9565b610717565b815115801561229957506001600160a01b0384163b155b156122c257604051639996b31560e01b81526001600160a01b038516600482015260240161077e565b5080610717565b8051156122d95780518082602001fd5b604051630a12f52160e11b815260040160405180910390fd5b6102138061300783390190565b6001600160a01b038116811461065d57600080fd5b803561231f816122ff565b919050565b60008083601f84011261233657600080fd5b5081356001600160401b0381111561234d57600080fd5b60208301915083602082850101111561236557600080fd5b9250929050565b60008060008060008060008060c0898b03121561238857600080fd5b8835612393816122ff565b975060208901356123a3816122ff565b965060408901356123b3816122ff565b95506060890135945060808901356001600160401b03808211156123d657600080fd5b6123e28c838d01612324565b909650945060a08b01359150808211156123fb57600080fd5b506124088b828c01612324565b999c989b5096995094979396929594505050565b6001600160e01b03198116811461065d57600080fd5b60006020828403121561244457600080fd5b81356107178161241c565b634e487b7160e01b600052604160045260246000fd5b604051601f8201601f191681016001600160401b038111828210171561248d5761248d61244f565b604052919050565b60006001600160401b038211156124ae576124ae61244f565b50601f01601f191660200190565b600082601f8301126124cd57600080fd5b81356124e06124db82612495565b612465565b8181528460208386010111156124f557600080fd5b816020850160208301376000918101602001919091529392505050565b60006020828403121561252457600080fd5b81356001600160401b0381111561253a57600080fd5b611ac2848285016124bc565b80356001600160c01b038116811461231f57600080fd5b60006020828403121561256f57600080fd5b61071782612546565b60008060008060006080868803121561259057600080fd5b853561259b816122ff565b945060208601356125ab816122ff565b93506040860135925060608601356001600160401b038111156125cd57600080fd5b6125d988828901612324565b969995985093965092949392505050565b6000806000604084860312156125ff57600080fd5b8335925060208401356001600160401b0381111561261c57600080fd5b61262886828701612324565b9497909650939450505050565b6000806040838503121561264857600080fd5b8235612653816122ff565b915061266160208401612546565b90509250929050565b60008083601f84011261267c57600080fd5b5081356001600160401b0381111561269357600080fd5b6020830191508360208260051b850101111561236557600080fd5b6000806000604084860312156126c357600080fd5b83356001600160401b038111156126d957600080fd5b6126e58682870161266a565b90945092505060208401356126f9816122ff565b809150509250925092565b6000806040838503121561271757600080fd5b82356001600160401b038082111561272e57600080fd5b61273a868387016124bc565b9350602085013591508082111561275057600080fd5b5061275d858286016124bc565b9150509250929050565b6000806040838503121561277a57600080fd5b8235612785816122ff565b915060208301356001600160401b038111156127a057600080fd5b61275d858286016124bc565b60005b838110156127c75781810151838201526020016127af565b50506000910152565b600081518084526127e88160208601602086016127ac565b601f01601f19169290920160200192915050565b60208152600061071760208301846127d0565b60006020828403121561282157600080fd5b81356001600160401b0381111561283757600080fd5b8201610160818503121561071757600080fd5b6020808252825182820181905260009190848201906040850190845b8181101561288b5783516001600160a01b031683529284019291840191600101612866565b50909695505050505050565b60008060008060008060008060a0898b0312156128b357600080fd5b88356128be816122ff565b975060208901356128ce816122ff565b965060408901356001600160401b03808211156128ea57600080fd5b6128f68c838d0161266a565b909850965060608b013591508082111561290f57600080fd5b61291b8c838d0161266a565b909650945060808b01359150808211156123fb57600080fd5b60008060006040848603121561294957600080fd5b8335612954816122ff565b925060208401356001600160401b0381111561261c57600080fd5b60006020828403121561298157600080fd5b8135610717816122ff565b60008060008060008060a087890312156129a557600080fd5b86356129b0816122ff565b955060208701356129c0816122ff565b9450604087013593506060870135925060808701356001600160401b038111156129e957600080fd5b6129f589828a01612324565b979a9699509497509295939492505050565b81835281816020850137506000828201602090810191909152601f909101601f19169091010190565b604081526000612a4360408301866127d0565b8281036020840152612a56818587612a07565b9695505050505050565b600060208284031215612a7257600080fd5b81516107178161241c565b634e487b7160e01b600052603260045260246000fd5b6000823561015e19833603018112612aaa57600080fd5b9190910192915050565b6000808335601e19843603018112612acb57600080fd5b8301803591506001600160401b03821115612ae557600080fd5b60200191503681900382131561236557600080fd5b600060208284031215612b0c57600080fd5b5051919050565b838152606060208201526000612b2c60608301856127d0565b8281036040840152612a5681856127d0565b805161231f816122ff565b60008060408385031215612b5c57600080fd5b82516001600160401b0380821115612b7357600080fd5b818501915085601f830112612b8757600080fd5b8151602082821115612b9b57612b9b61244f565b8160051b9250612bac818401612465565b8281529284018101928181019089851115612bc657600080fd5b948201945b84861015612bf05785519350612be0846122ff565b8382529482019490820190612bcb565b9650612bff9050878201612b3e565b9450505050509250929050565b60008251612aaa8184602087016127ac565b60008085851115612c2e57600080fd5b83861115612c3b57600080fd5b5050820193919092039150565b600080600060608486031215612c5d57600080fd5b8335612c68816122ff565b92506020840135915060408401356001600160401b03811115612c8a57600080fd5b612c96868287016124bc565b9150509250925092565b6001600160e01b03198135818116916004851015612cc85780818660040360031b1b83161692505b505092915050565b6000808335601e19843603018112612ce757600080fd5b83016020810192503590506001600160401b03811115612d0657600080fd5b80360382131561236557600080fd5b60608152612d3660608201612d2986612314565b6001600160a01b03169052565b602084013560808201526000612d4f6040860186612cd0565b6101608060a0860152612d676101c086018385612a07565b9250612d766060890189612cd0565b9250605f19808786030160c0880152612d90858584612a07565b945060808a013560e0880152610100935060a08a013584880152610120915060c08a01358288015261014060e08b013581890152848b013584890152612dd8838c018c612cd0565b955093508188870301610180890152612df2868686612a07565b9550612e00818c018c612cd0565b955093505080878603016101a08801525050612e1d838383612a07565b60208601979097525050505060400152919050565b600082601f830112612e4357600080fd5b8151612e516124db82612495565b818152846020838601011115612e6657600080fd5b611ac28260208301602087016127ac565b60008060408385031215612e8a57600080fd5b82516001600160401b03811115612ea057600080fd5b612eac85828601612e32565b925050602083015190509250929050565b60018060a01b0385168152836020820152608060408201526000612ee460808301856127d0565b905060028310612f0457634e487b7160e01b600052602160045260246000fd5b82606083015295945050505050565b8051801515811461231f57600080fd5b60008060408385031215612f3657600080fd5b612f3f83612f13565b915060208301516001600160401b03811115612f5a57600080fd5b61275d85828601612e32565b6bffffffffffffffffffffffff198135818116916014851015612cc85760149490940360031b84901b1690921692915050565b602081526000611ac2602083018486612a07565b600060208284031215612fbf57600080fd5b8151610717816122ff565b600060208284031215612fdc57600080fd5b61071782612f13565b8082018082111561064357634e487b7160e01b600052601160045260246000fdfe608060405234801561001057600080fd5b506101f3806100206000396000f3fe608060405234801561001057600080fd5b506004361061002b5760003560e01c8063570e1a3614610030575b600080fd5b61004361003e3660046100ec565b61005f565b6040516001600160a01b03909116815260200160405180910390f35b60008061006f601482858761015e565b61007891610188565b60601c9050600061008c846014818861015e565b8080601f016020809104026020016040519081016040528093929190818152602001838380828437600092018290525084519495509360209350849250905082850182875af190506000519350806100e357600093505b50505092915050565b600080602083850312156100ff57600080fd5b823567ffffffffffffffff8082111561011757600080fd5b818501915085601f83011261012b57600080fd5b81358181111561013a57600080fd5b86602082850101111561014c57600080fd5b60209290920196919550909350505050565b6000808585111561016e57600080fd5b8386111561017b57600080fd5b5050820193919092039150565b6bffffffffffffffffffffffff1981358181169160148510156101b55780818660140360031b1b83161692505b50509291505056fea264697066735822122032ef998cbf49cb6c3dd4d7fe06146c76196179f09d4bf7e9efc07d46ac5483fa64736f6c63430008170033657865635472616e73616374696f6e46726f6d4d6f64756c6528616464726573732c75696e743235362c62797465732c75696e743829360894a13ba1a3210667c828492db98dca3e2076cc3735a920a3ca505d382bbc5369676e617475726556616c696461746f72237265636f7665725369676e6572a2646970667358221220f6f5fc8aa165526a619608263b548f6f49171c77dc41c8fa76f3d5297d53317964736f6c63430008170033","linkReferences":{}},"methodIdentifiers":{"NAME()":"a3f4df7e","UPGRADE_INTERFACE_VERSION()":"ad3cb1cc","VERSION()":"ffa1ad74","domainSeparator()":"f698da25","encodeMessageDataForSafe(address,bytes)":"23031640","getChainId()":"3408e470","getMessageHash(bytes)":"0a1028c4","getMessageHashForSafe(address,bytes)":"6ac24784","getModules()":"b2494df3","getNonce(address,uint192)":"35567e1a","getUserOpHash((address,uint256,bytes,bytes,uint256,uint256,uint256,uint256,uint256,bytes,bytes))":"a6193531","handleOps((address,uint256,bytes,bytes,uint256,uint256,uint256,uint256,uint256,bytes,bytes)[],address)":"1fad948c","incrementNonce(uint192)":"0bd28e3b","initialize(address)":"c4d66de8","isValidSignature(bytes,bytes)":"20c13b0b","isValidSignature(bytes32,bytes)":"1626ba7e","nonceSequenceNumber(address,uint192)":"1b2e01b8","onERC1155BatchReceived(address,address,uint256[],uint256[],bytes)":"bc197c81","onERC1155Received(address,address,uint256,uint256,bytes)":"f23a6e61","onERC721Received(address,address,uint256,bytes)":"150b7a02","owner()":"8da5cb5b","proxiableUUID()":"52d1902d","renounceOwnership()":"715018a6","simulate(address,bytes)":"bd61951d","supportsInterface(bytes4)":"01ffc9a7","tokensReceived(address,address,address,uint256,bytes,bytes)":"0023de29","transferOwnership(address)":"f2fde38b","upgradeToAndCall(address,bytes)":"4f1ef286"},"storageLayout":{"storage":[{"astId":65664,"contract":"src/Modules/Community/CommunityModule.sol:CommunityModule","label":"hashes","offset":0,"slot":"0","type":"t_mapping(t_bytes32,t_struct(ExecutionStatus)65655_storage)"},{"astId":64406,"contract":"src/Modules/Community/CommunityModule.sol:CommunityModule","label":"senderCreator","offset":0,"slot":"1","type":"t_contract(SenderCreator)427"},{"astId":64475,"contract":"src/Modules/Community/CommunityModule.sol:CommunityModule","label":"nonceSequenceNumber","offset":0,"slot":"2","type":"t_mapping(t_address,t_mapping(t_uint192,t_uint256))"},{"astId":64940,"contract":"src/Modules/Community/CommunityModule.sol:CommunityModule","label":"executeSelector","offset":0,"slot":"3","type":"t_bytes4"}],"types":{"t_address":{"encoding":"inplace","label":"address","numberOfBytes":"20"},"t_bool":{"encoding":"inplace","label":"bool","numberOfBytes":"1"},"t_bytes32":{"encoding":"inplace","label":"bytes32","numberOfBytes":"32"},"t_bytes4":{"encoding":"inplace","label":"bytes4","numberOfBytes":"4"},"t_contract(SenderCreator)427":{"encoding":"inplace","label":"contract SenderCreator","numberOfBytes":"20"},"t_mapping(t_address,t_mapping(t_uint192,t_uint256))":{"encoding":"mapping","key":"t_address","label":"mapping(address => mapping(uint192 => uint256))","numberOfBytes":"32","value":"t_mapping(t_uint192,t_uint256)"},"t_mapping(t_bytes32,t_struct(ExecutionStatus)65655_storage)":{"encoding":"mapping","key":"t_bytes32","label":"mapping(bytes32 => struct UserOpHandler.ExecutionStatus)","numberOfBytes":"32","value":"t_struct(ExecutionStatus)65655_storage"},"t_mapping(t_uint192,t_uint256)":{"encoding":"mapping","key":"t_uint192","label":"mapping(uint192 => uint256)","numberOfBytes":"32","value":"t_uint256"},"t_struct(ExecutionStatus)65655_storage":{"encoding":"inplace","label":"struct UserOpHandler.ExecutionStatus","numberOfBytes":"32","members":[{"astId":65654,"contract":"src/Modules/Community/CommunityModule.sol:CommunityModule","label":"approved","offset":0,"slot":"0","type":"t_bool"}]},"t_uint192":{"encoding":"inplace","label":"uint192","numberOfBytes":"24"},"t_uint256":{"encoding":"inplace","label":"uint256","numberOfBytes":"32"}}},"id":146}