{
    "abi": [
        {
            "type": "function",
            "name": "DEFAULT_ADMIN_ROLE",
            "inputs": [],
            "outputs": [
                {
                    "name": "",
                    "type": "bytes32",
                    "internalType": "bytes32"
                }
            ],
            "stateMutability": "view"
        },
        {
            "type": "function",
            "name": "UPGRADE_INTERFACE_VERSION",
            "inputs": [],
            "outputs": [
                {
                    "name": "",
                    "type": "string",
                    "internalType": "string"
                }
            ],
            "stateMutability": "view"
        },
        {
            "type": "function",
            "name": "addToken",
            "inputs": [
                {
                    "name": "token",
                    "type": "bytes32",
                    "internalType": "bytes32"
                }
            ],
            "outputs": [],
            "stateMutability": "nonpayable"
        },
        {
            "type": "function",
            "name": "closePoll",
            "inputs": [
                {
                    "name": "pollId",
                    "type": "bytes32",
                    "internalType": "bytes32"
                }
            ],
            "outputs": [],
            "stateMutability": "nonpayable"
        },
        {
            "type": "function",
            "name": "createPoll",
            "inputs": [
                {
                    "name": "poll",
                    "type": "tuple",
                    "internalType": "struct Vote.Poll",
                    "components": [
                        {
                            "name": "name",
                            "type": "bytes",
                            "internalType": "bytes"
                        },
                        {
                            "name": "emoji",
                            "type": "bytes",
                            "internalType": "bytes"
                        },
                        {
                            "name": "description",
                            "type": "bytes",
                            "internalType": "bytes"
                        },
                        {
                            "name": "options",
                            "type": "bytes[]",
                            "internalType": "bytes[]"
                        }
                    ]
                }
            ],
            "outputs": [],
            "stateMutability": "nonpayable"
        },
        {
            "type": "function",
            "name": "generatePollToken",
            "inputs": [
                {
                    "name": "pollOwner",
                    "type": "address",
                    "internalType": "address"
                },
                {
                    "name": "voter",
                    "type": "address",
                    "internalType": "address"
                }
            ],
            "outputs": [
                {
                    "name": "",
                    "type": "bytes32",
                    "internalType": "bytes32"
                }
            ],
            "stateMutability": "view"
        },
        {
            "type": "function",
            "name": "getNextPollId",
            "inputs": [],
            "outputs": [
                {
                    "name": "",
                    "type": "bytes32",
                    "internalType": "bytes32"
                }
            ],
            "stateMutability": "view"
        },
        {
            "type": "function",
            "name": "getRoleAdmin",
            "inputs": [
                {
                    "name": "role",
                    "type": "bytes32",
                    "internalType": "bytes32"
                }
            ],
            "outputs": [
                {
                    "name": "",
                    "type": "bytes32",
                    "internalType": "bytes32"
                }
            ],
            "stateMutability": "view"
        },
        {
            "type": "function",
            "name": "grantRole",
            "inputs": [
                {
                    "name": "role",
                    "type": "bytes32",
                    "internalType": "bytes32"
                },
                {
                    "name": "account",
                    "type": "address",
                    "internalType": "address"
                }
            ],
            "outputs": [],
            "stateMutability": "nonpayable"
        },
        {
            "type": "function",
            "name": "hasRole",
            "inputs": [
                {
                    "name": "role",
                    "type": "bytes32",
                    "internalType": "bytes32"
                },
                {
                    "name": "account",
                    "type": "address",
                    "internalType": "address"
                }
            ],
            "outputs": [
                {
                    "name": "",
                    "type": "bool",
                    "internalType": "bool"
                }
            ],
            "stateMutability": "view"
        },
        {
            "type": "function",
            "name": "initialize",
            "inputs": [
                {
                    "name": "_owner",
                    "type": "address",
                    "internalType": "address"
                }
            ],
            "outputs": [],
            "stateMutability": "nonpayable"
        },
        {
            "type": "function",
            "name": "nonces",
            "inputs": [
                {
                    "name": "",
                    "type": "address",
                    "internalType": "address"
                }
            ],
            "outputs": [
                {
                    "name": "",
                    "type": "uint256",
                    "internalType": "uint256"
                }
            ],
            "stateMutability": "view"
        },
        {
            "type": "function",
            "name": "owner",
            "inputs": [],
            "outputs": [
                {
                    "name": "",
                    "type": "address",
                    "internalType": "address"
                }
            ],
            "stateMutability": "view"
        },
        {
            "type": "function",
            "name": "pollClosed",
            "inputs": [
                {
                    "name": "",
                    "type": "bytes32",
                    "internalType": "bytes32"
                }
            ],
            "outputs": [
                {
                    "name": "",
                    "type": "bool",
                    "internalType": "bool"
                }
            ],
            "stateMutability": "view"
        },
        {
            "type": "function",
            "name": "pollDescription",
            "inputs": [
                {
                    "name": "",
                    "type": "bytes32",
                    "internalType": "bytes32"
                }
            ],
            "outputs": [
                {
                    "name": "",
                    "type": "bytes",
                    "internalType": "bytes"
                }
            ],
            "stateMutability": "view"
        },
        {
            "type": "function",
            "name": "pollEmoji",
            "inputs": [
                {
                    "name": "",
                    "type": "bytes32",
                    "internalType": "bytes32"
                }
            ],
            "outputs": [
                {
                    "name": "",
                    "type": "bytes",
                    "internalType": "bytes"
                }
            ],
            "stateMutability": "view"
        },
        {
            "type": "function",
            "name": "pollName",
            "inputs": [
                {
                    "name": "",
                    "type": "bytes32",
                    "internalType": "bytes32"
                }
            ],
            "outputs": [
                {
                    "name": "",
                    "type": "bytes",
                    "internalType": "bytes"
                }
            ],
            "stateMutability": "view"
        },
        {
            "type": "function",
            "name": "pollOptions",
            "inputs": [
                {
                    "name": "pollId",
                    "type": "bytes32",
                    "internalType": "bytes32"
                }
            ],
            "outputs": [
                {
                    "name": "",
                    "type": "bytes[]",
                    "internalType": "bytes[]"
                }
            ],
            "stateMutability": "view"
        },
        {
            "type": "function",
            "name": "pollOwnerAuthorizedTokenList",
            "inputs": [
                {
                    "name": "pollOwner",
                    "type": "address",
                    "internalType": "address"
                }
            ],
            "outputs": [
                {
                    "name": "",
                    "type": "bytes32[]",
                    "internalType": "bytes32[]"
                }
            ],
            "stateMutability": "view"
        },
        {
            "type": "function",
            "name": "pollOwnerAuthorizedTokens",
            "inputs": [
                {
                    "name": "",
                    "type": "address",
                    "internalType": "address"
                },
                {
                    "name": "",
                    "type": "bytes32",
                    "internalType": "bytes32"
                }
            ],
            "outputs": [
                {
                    "name": "",
                    "type": "bool",
                    "internalType": "bool"
                }
            ],
            "stateMutability": "view"
        },
        {
            "type": "function",
            "name": "pollOwners",
            "inputs": [
                {
                    "name": "",
                    "type": "bytes32",
                    "internalType": "bytes32"
                }
            ],
            "outputs": [
                {
                    "name": "",
                    "type": "address",
                    "internalType": "address"
                }
            ],
            "stateMutability": "view"
        },
        {
            "type": "function",
            "name": "pollTokens",
            "inputs": [
                {
                    "name": "",
                    "type": "bytes32",
                    "internalType": "bytes32"
                },
                {
                    "name": "",
                    "type": "bytes32",
                    "internalType": "bytes32"
                }
            ],
            "outputs": [
                {
                    "name": "",
                    "type": "bool",
                    "internalType": "bool"
                }
            ],
            "stateMutability": "view"
        },
        {
            "type": "function",
            "name": "pollTotalVotes",
            "inputs": [
                {
                    "name": "",
                    "type": "bytes32",
                    "internalType": "bytes32"
                }
            ],
            "outputs": [
                {
                    "name": "",
                    "type": "uint256",
                    "internalType": "uint256"
                }
            ],
            "stateMutability": "view"
        },
        {
            "type": "function",
            "name": "pollVotes",
            "inputs": [
                {
                    "name": "pollId",
                    "type": "bytes32",
                    "internalType": "bytes32"
                }
            ],
            "outputs": [
                {
                    "name": "",
                    "type": "uint256[]",
                    "internalType": "uint256[]"
                }
            ],
            "stateMutability": "view"
        },
        {
            "type": "function",
            "name": "proxiableUUID",
            "inputs": [],
            "outputs": [
                {
                    "name": "",
                    "type": "bytes32",
                    "internalType": "bytes32"
                }
            ],
            "stateMutability": "view"
        },
        {
            "type": "function",
            "name": "removeToken",
            "inputs": [
                {
                    "name": "token",
                    "type": "bytes32",
                    "internalType": "bytes32"
                }
            ],
            "outputs": [],
            "stateMutability": "nonpayable"
        },
        {
            "type": "function",
            "name": "renounceOwnership",
            "inputs": [],
            "outputs": [],
            "stateMutability": "nonpayable"
        },
        {
            "type": "function",
            "name": "renounceRole",
            "inputs": [
                {
                    "name": "role",
                    "type": "bytes32",
                    "internalType": "bytes32"
                },
                {
                    "name": "callerConfirmation",
                    "type": "address",
                    "internalType": "address"
                }
            ],
            "outputs": [],
            "stateMutability": "nonpayable"
        },
        {
            "type": "function",
            "name": "revokeRole",
            "inputs": [
                {
                    "name": "role",
                    "type": "bytes32",
                    "internalType": "bytes32"
                },
                {
                    "name": "account",
                    "type": "address",
                    "internalType": "address"
                }
            ],
            "outputs": [],
            "stateMutability": "nonpayable"
        },
        {
            "type": "function",
            "name": "supportsInterface",
            "inputs": [
                {
                    "name": "interfaceId",
                    "type": "bytes4",
                    "internalType": "bytes4"
                }
            ],
            "outputs": [
                {
                    "name": "",
                    "type": "bool",
                    "internalType": "bool"
                }
            ],
            "stateMutability": "view"
        },
        {
            "type": "function",
            "name": "transferOwnership",
            "inputs": [
                {
                    "name": "newOwner",
                    "type": "address",
                    "internalType": "address"
                }
            ],
            "outputs": [],
            "stateMutability": "nonpayable"
        },
        {
            "type": "function",
            "name": "upgradeToAndCall",
            "inputs": [
                {
                    "name": "newImplementation",
                    "type": "address",
                    "internalType": "address"
                },
                {
                    "name": "data",
                    "type": "bytes",
                    "internalType": "bytes"
                }
            ],
            "outputs": [],
            "stateMutability": "payable"
        },
        {
            "type": "function",
            "name": "vote",
            "inputs": [
                {
                    "name": "pollId",
                    "type": "bytes32",
                    "internalType": "bytes32"
                },
                {
                    "name": "voter",
                    "type": "address",
                    "internalType": "address"
                },
                {
                    "name": "optionIndex",
                    "type": "uint256",
                    "internalType": "uint256"
                }
            ],
            "outputs": [],
            "stateMutability": "nonpayable"
        },
        {
            "type": "event",
            "name": "Initialized",
            "inputs": [
                {
                    "name": "version",
                    "type": "uint64",
                    "indexed": false,
                    "internalType": "uint64"
                }
            ],
            "anonymous": false
        },
        {
            "type": "event",
            "name": "OwnershipTransferred",
            "inputs": [
                {
                    "name": "previousOwner",
                    "type": "address",
                    "indexed": true,
                    "internalType": "address"
                },
                {
                    "name": "newOwner",
                    "type": "address",
                    "indexed": true,
                    "internalType": "address"
                }
            ],
            "anonymous": false
        },
        {
            "type": "event",
            "name": "PollClosed",
            "inputs": [
                {
                    "name": "pollId",
                    "type": "bytes32",
                    "indexed": true,
                    "internalType": "bytes32"
                }
            ],
            "anonymous": false
        },
        {
            "type": "event",
            "name": "PollCreated",
            "inputs": [
                {
                    "name": "pollId",
                    "type": "bytes32",
                    "indexed": true,
                    "internalType": "bytes32"
                },
                {
                    "name": "name",
                    "type": "bytes",
                    "indexed": false,
                    "internalType": "bytes"
                },
                {
                    "name": "emoji",
                    "type": "bytes",
                    "indexed": false,
                    "internalType": "bytes"
                }
            ],
            "anonymous": false
        },
        {
            "type": "event",
            "name": "PollVoted",
            "inputs": [
                {
                    "name": "pollId",
                    "type": "bytes32",
                    "indexed": true,
                    "internalType": "bytes32"
                },
                {
                    "name": "optionIndex",
                    "type": "uint256",
                    "indexed": true,
                    "internalType": "uint256"
                },
                {
                    "name": "votes",
                    "type": "uint256",
                    "indexed": false,
                    "internalType": "uint256"
                },
                {
                    "name": "totalVotes",
                    "type": "uint256",
                    "indexed": false,
                    "internalType": "uint256"
                }
            ],
            "anonymous": false
        },
        {
            "type": "event",
            "name": "RoleAdminChanged",
            "inputs": [
                {
                    "name": "role",
                    "type": "bytes32",
                    "indexed": true,
                    "internalType": "bytes32"
                },
                {
                    "name": "previousAdminRole",
                    "type": "bytes32",
                    "indexed": true,
                    "internalType": "bytes32"
                },
                {
                    "name": "newAdminRole",
                    "type": "bytes32",
                    "indexed": true,
                    "internalType": "bytes32"
                }
            ],
            "anonymous": false
        },
        {
            "type": "event",
            "name": "RoleGranted",
            "inputs": [
                {
                    "name": "role",
                    "type": "bytes32",
                    "indexed": true,
                    "internalType": "bytes32"
                },
                {
                    "name": "account",
                    "type": "address",
                    "indexed": true,
                    "internalType": "address"
                },
                {
                    "name": "sender",
                    "type": "address",
                    "indexed": true,
                    "internalType": "address"
                }
            ],
            "anonymous": false
        },
        {
            "type": "event",
            "name": "RoleRevoked",
            "inputs": [
                {
                    "name": "role",
                    "type": "bytes32",
                    "indexed": true,
                    "internalType": "bytes32"
                },
                {
                    "name": "account",
                    "type": "address",
                    "indexed": true,
                    "internalType": "address"
                },
                {
                    "name": "sender",
                    "type": "address",
                    "indexed": true,
                    "internalType": "address"
                }
            ],
            "anonymous": false
        },
        {
            "type": "event",
            "name": "TokenAdded",
            "inputs": [
                {
                    "name": "pollOwner",
                    "type": "address",
                    "indexed": true,
                    "internalType": "address"
                },
                {
                    "name": "token",
                    "type": "bytes32",
                    "indexed": true,
                    "internalType": "bytes32"
                }
            ],
            "anonymous": false
        },
        {
            "type": "event",
            "name": "TokenRemoved",
            "inputs": [
                {
                    "name": "pollOwner",
                    "type": "address",
                    "indexed": true,
                    "internalType": "address"
                },
                {
                    "name": "token",
                    "type": "bytes32",
                    "indexed": true,
                    "internalType": "bytes32"
                }
            ],
            "anonymous": false
        },
        {
            "type": "event",
            "name": "Upgraded",
            "inputs": [
                {
                    "name": "implementation",
                    "type": "address",
                    "indexed": true,
                    "internalType": "address"
                }
            ],
            "anonymous": false
        },
        {
            "type": "error",
            "name": "AccessControlBadConfirmation",
            "inputs": []
        },
        {
            "type": "error",
            "name": "AccessControlUnauthorizedAccount",
            "inputs": [
                {
                    "name": "account",
                    "type": "address",
                    "internalType": "address"
                },
                {
                    "name": "neededRole",
                    "type": "bytes32",
                    "internalType": "bytes32"
                }
            ]
        },
        {
            "type": "error",
            "name": "AddressEmptyCode",
            "inputs": [
                {
                    "name": "target",
                    "type": "address",
                    "internalType": "address"
                }
            ]
        },
        {
            "type": "error",
            "name": "ERC1967InvalidImplementation",
            "inputs": [
                {
                    "name": "implementation",
                    "type": "address",
                    "internalType": "address"
                }
            ]
        },
        {
            "type": "error",
            "name": "ERC1967NonPayable",
            "inputs": []
        },
        {
            "type": "error",
            "name": "FailedInnerCall",
            "inputs": []
        },
        {
            "type": "error",
            "name": "InvalidInitialization",
            "inputs": []
        },
        {
            "type": "error",
            "name": "NotInitializing",
            "inputs": []
        },
        {
            "type": "error",
            "name": "OwnableInvalidOwner",
            "inputs": [
                {
                    "name": "owner",
                    "type": "address",
                    "internalType": "address"
                }
            ]
        },
        {
            "type": "error",
            "name": "OwnableUnauthorizedAccount",
            "inputs": [
                {
                    "name": "account",
                    "type": "address",
                    "internalType": "address"
                }
            ]
        },
        {
            "type": "error",
            "name": "Poll__OnlyPollAuthorizedToken",
            "inputs": []
        },
        {
            "type": "error",
            "name": "Poll__OnlyPollOwner",
            "inputs": []
        },
        {
            "type": "error",
            "name": "Poll__PollAlreadyClosed",
            "inputs": []
        },
        {
            "type": "error",
            "name": "Poll__PollAlreadyExists",
            "inputs": []
        },
        {
            "type": "error",
            "name": "Poll__PollDoesNotExist",
            "inputs": []
        },
        {
            "type": "error",
            "name": "Poll__TokenAlreadyAuthorized",
            "inputs": []
        },
        {
            "type": "error",
            "name": "Poll__TokenAlreadyUsed",
            "inputs": []
        },
        {
            "type": "error",
            "name": "Poll__TokenNotAuthorized",
            "inputs": []
        },
        {
            "type": "error",
            "name": "UUPSUnauthorizedCallContext",
            "inputs": []
        },
        {
            "type": "error",
            "name": "UUPSUnsupportedProxiableUUID",
            "inputs": [
                {
                    "name": "slot",
                    "type": "bytes32",
                    "internalType": "bytes32"
                }
            ]
        }
    ],
    "bytecode": {
        "object": "0x60a060405230608052348015601357600080fd5b5060805161226e61003d600039600081816114ec015281816115150152611656015261226e6000f3fe6080604052600436106101ee5760003560e01c80636fba57381161010d5780639e690bc5116100a0578063c4d66de81161006f578063c4d66de814610631578063cfa579cc14610651578063d547741f1461067e578063f0cd45ad1461069e578063f2fde38b146106be57600080fd5b80639e690bc5146105a0578063a217fddf146105d6578063a3ac528a146105eb578063ad3cb1cc1461060057600080fd5b80638da5cb5b116100dc5780638da5cb5b146104e257806390ec61791461053357806391d14854146105535780639dd881631461057357600080fd5b80636fba573814610445578063715018a6146104655780637ecebe001461047a5780638a5ea124146104a757600080fd5b806336568abe1161018557806356cc74171161015457806356cc7417146103aa578063582a04e3146103ca57806360d4fe60146104055780636902df591461042557600080fd5b806336568abe1461034257806338a7a003146103625780634f1ef2861461038257806352d1902d1461039557600080fd5b8063248a9ca3116101c1578063248a9ca3146102a457806325c66de2146102d25780632f2ff15d146102f2578063327322c81461031257600080fd5b806301ffc9a7146101f35780630711a90d146102285780631ca38d1f14610255578063224e746214610282575b600080fd5b3480156101ff57600080fd5b5061021361020e366004611ae4565b6106de565b60405190151581526020015b60405180910390f35b34801561023457600080fd5b50610248610243366004611b0e565b610715565b60405161021f9190611b27565b34801561026157600080fd5b50610275610270366004611b0e565b610777565b60405161021f9190611bba565b34801561028e57600080fd5b506102a261029d366004611b0e565b610811565b005b3480156102b057600080fd5b506102c46102bf366004611b0e565b6109cb565b60405190815260200161021f565b3480156102de57600080fd5b506102a26102ed366004611be9565b6109ed565b3480156102fe57600080fd5b506102a261030d366004611c1e565b610bc9565b34801561031e57600080fd5b5061021361032d366004611b0e565b600b6020526000908152604090205460ff1681565b34801561034e57600080fd5b506102a261035d366004611c1e565b610beb565b34801561036e57600080fd5b5061027561037d366004611b0e565b610c23565b6102a2610390366004611d27565b610c3c565b3480156103a157600080fd5b506102c4610c5b565b3480156103b657600080fd5b506102486103c5366004611d74565b610c78565b3480156103d657600080fd5b506102136103e5366004611d8f565b600260209081526000928352604080842090915290825290205460ff1681565b34801561041157600080fd5b506102a2610420366004611b0e565b610ce2565b34801561043157600080fd5b506102a2610440366004611e5f565b610d92565b34801561045157600080fd5b506102c4610460366004611f4f565b610f3c565b34801561047157600080fd5b506102a2610f91565b34801561048657600080fd5b506102c4610495366004611d74565b60006020819052908152604090205481565b3480156104b357600080fd5b506102136104c2366004611f79565b600760209081526000928352604080842090915290825290205460ff1681565b3480156104ee57600080fd5b507f9016d09d72d40fdae2fd8ceac6b6234c7706214fd39c1cd1e609a0528c199300546001600160a01b03165b6040516001600160a01b03909116815260200161021f565b34801561053f57600080fd5b5061027561054e366004611b0e565b610fa5565b34801561055f57600080fd5b5061021361056e366004611c1e565b610fbe565b34801561057f57600080fd5b5061059361058e366004611b0e565b610ff6565b60405161021f9190611f9b565b3480156105ac57600080fd5b5061051b6105bb366004611b0e565b6001602052600090815260409020546001600160a01b031681565b3480156105e257600080fd5b506102c4600081565b3480156105f757600080fd5b506102c46110e2565b34801561060c57600080fd5b50610275604051806040016040528060058152602001640352e302e360dc1b81525081565b34801561063d57600080fd5b506102a261064c366004611d74565b611143565b34801561065d57600080fd5b506102c461066c366004611b0e565b600a6020526000908152604090205481565b34801561068a57600080fd5b506102a2610699366004611c1e565b61126d565b3480156106aa57600080fd5b506102a26106b9366004611b0e565b611289565b3480156106ca57600080fd5b506102a26106d9366004611d74565b611373565b60006001600160e01b03198216637965db0b60e01b148061070f57506301ffc9a760e01b6001600160e01b03198316145b92915050565b60008181526009602090815260409182902080548351818402810184019094528084526060939283018282801561076b57602002820191906000526020600020905b815481526020019060010190808311610757575b50505050509050919050565b6004602052600090815260409020805461079090612000565b80601f01602080910402602001604051908101604052809291908181526020018280546107bc90612000565b80156108095780601f106107de57610100808354040283529160200191610809565b820191906000526020600020905b8154815290600101906020018083116107ec57829003601f168201915b505050505081565b33600090815260026020908152604080832084845290915290205460ff1661084c5760405163176a4d7b60e11b815260040160405180910390fd5b3360009081526003602052604081205461086890600190612050565b6001600160401b0381111561087f5761087f611c4a565b6040519080825280602002602001820160405280156108a8578160200160208202803683370190505b5090506000805b3360009081526003602052604090205481101561095a573360009081526003602052604090208054859190839081106108ea576108ea612063565b906000526020600020015403156109525733600090815260036020526040902080548290811061091c5761091c612063565b906000526020600020015483838151811061093957610939612063565b60209081029190910101528161094e81612079565b9250505b6001016108af565b50336000908152600360209081526040909120835161097b928501906119db565b50336000818152600260209081526040808320878452909152808220805460ff19169055518592917fbff5b29009689473150d014da96e27d6bdf1f508271a9c9c309fd50ceaf466a691a3505050565b6000908152600080516020612219833981519152602052604090206001015490565b6000838152600b6020526040902054839060ff1615610a1f57604051636f8114df60e01b815260040160405180910390fd5b600084815260016020526040812054610a41906001600160a01b031685610f3c565b6000868152600160209081526040808320546001600160a01b031680845260028352818420858552909252909120549192509060ff16610a945760405163158da9b160e11b815260040160405180910390fd5b600086815260076020908152604080832085845290915290205460ff1615610acf576040516357c8001160e01b815260040160405180910390fd5b6000868152600960205260409020805485908110610aef57610aef612063565b60009182526020822001805491610b0583612079565b90915550506000868152600a60205260408120805491610b2483612079565b909155505060008681526007602090815260408083208584528252808320805460ff19166001179055888352600990915290208054859188917f7e9e652824479d3275a3dd2e6f938f1b4f6b4f10b44ab16e00616cfe79228c1f919084908110610b9057610b90612063565b60009182526020808320909101548b8352600a8252604092839020548351918252918101919091520160405180910390a3505050505050565b610bd2826109cb565b610bdb816113b6565b610be583836113c0565b50505050565b6001600160a01b0381163314610c145760405163334bd91960e11b815260040160405180910390fd5b610c1e8282611465565b505050565b6006602052600090815260409020805461079090612000565b610c446114e1565b610c4d82611586565b610c57828261158e565b5050565b6000610c6561164b565b506000805160206121f983398151915290565b6001600160a01b03811660009081526003602090815260409182902080548351818402810184019094528084526060939283018282801561076b57602002820191906000526020600020908154815260200190600101908083116107575750505050509050919050565b60008181526001602052604090205481906001600160a01b03163314610d1b5760405163a816c16960e01b815260040160405180910390fd5b6000828152600b6020526040902054829060ff1615610d4d57604051636f8114df60e01b815260040160405180910390fd5b6000838152600b6020526040808220805460ff191660011790555184917f3cb4e963452bc81668658458263ac4fd1214e69daf303dd1589519803751436191a2505050565b6000610d9c6110e2565b60008181526008602052604090205490915015610dcc5760405163897787b760e01b815260040160405180910390fd5b8151600082815260046020526040902090610de790826120e0565b5060208083015160008381526005909252604090912090610e0890826120e0565b50604080830151600083815260066020529190912090610e2890826120e0565b50606082015160008281526008602090815260409091208251610e5093919290910190611a26565b508160600151516001600160401b03811115610e6e57610e6e611c4a565b604051908082528060200260200182016040528015610e97578160200160208202803683370190505b5060008281526009602090815260409091208251610ebb93919291909101906119db565b50600081815260016020908152604080832080546001600160a01b031916339081179091558352908290528120805491610ef483612079565b90915550508151602083015160405183927f06f6285ada46d1a9daed9581f45f3ea56937ae528e486e395858fea5efb25c6192610f309261219e565b60405180910390a25050565b6040516bffffffffffffffffffffffff1930606090811b8216602084015284811b8216603484015283901b166048820152600090605c0160405160208183030381529060405280519060200120905092915050565b610f99611694565b610fa360006116ef565b565b6005602052600090815260409020805461079090612000565b6000918252600080516020612219833981519152602090815260408084206001600160a01b0393909316845291905290205460ff1690565b606060086000838152602001908152602001600020805480602002602001604051908101604052809291908181526020016000905b828210156110d757838290600052602060002001805461104a90612000565b80601f016020809104026020016040519081016040528092919081815260200182805461107690612000565b80156110c35780601f10611098576101008083540402835291602001916110c3565b820191906000526020600020905b8154815290600101906020018083116110a657829003601f168201915b50505050508152602001906001019061102b565b505050509050919050565b3360008181526020818152604080832054905130606090811b6bffffffffffffffffffffffff19908116948301949094529490941b909116603484015260488301529060680160405160208183030381529060405280519060200120905090565b7ff0c57e16840df040f15088dc2f81fe391c3923bec73e23a9662efc9c229c6a008054600160401b810460ff1615906001600160401b03166000811580156111885750825b90506000826001600160401b031660011480156111a45750303b155b9050811580156111b2575080155b156111d05760405163f92ee8a960e01b815260040160405180910390fd5b845467ffffffffffffffff1916600117855583156111fa57845460ff60401b1916600160401b1785555b61120386611760565b61120b611771565b611213611771565b61121e6000876113c0565b50831561126557845460ff60401b19168555604051600181527fc7f505b2f371ae2175ee4913f4499e1f2633a7b5936321eed1cdaeb6115181d29060200160405180910390a15b505050505050565b611276826109cb565b61127f816113b6565b610be58383611465565b33600090815260026020908152604080832084845290915290205460ff16156112c55760405163499e2d9560e11b815260040160405180910390fd5b3360009081526003602052604081205490036113055760408051600080825260208083018085523383526003909152929020905161130392906119db565b505b3360008181526003602090815260408083208054600181810183559185528385200186905584845260028352818420868552909252808320805460ff1916909217909155518392917fe6f2c806df4d61ecb96304200f584c14ad8572a4d28873ae7c636faf01645fdb91a350565b61137b611694565b6001600160a01b0381166113aa57604051631e4fbdf760e01b8152600060048201526024015b60405180910390fd5b6113b3816116ef565b50565b6113b38133611779565b60006000805160206122198339815191526113db8484610fbe565b61145b576000848152602082815260408083206001600160a01b03871684529091529020805460ff191660011790556114113390565b6001600160a01b0316836001600160a01b0316857f2f8788117e7eff1d82e926ec794901d17c78024a50270940304540a733656f0d60405160405180910390a4600191505061070f565b600091505061070f565b60006000805160206122198339815191526114808484610fbe565b1561145b576000848152602082815260408083206001600160a01b0387168085529252808320805460ff1916905551339287917ff6391f5c32d9c69d2a47ea670b442974b53935d1edc7fd64eb21e047a839171b9190a4600191505061070f565b306001600160a01b037f000000000000000000000000000000000000000000000000000000000000000016148061156857507f00000000000000000000000000000000000000000000000000000000000000006001600160a01b031661155c6000805160206121f9833981519152546001600160a01b031690565b6001600160a01b031614155b15610fa35760405163703e46dd60e11b815260040160405180910390fd5b6113b3611694565b816001600160a01b03166352d1902d6040518163ffffffff1660e01b8152600401602060405180830381865afa9250505080156115e8575060408051601f3d908101601f191682019092526115e5918101906121c3565b60015b61161057604051634c9c8ce360e01b81526001600160a01b03831660048201526024016113a1565b6000805160206121f9833981519152811461164157604051632a87526960e21b8152600481018290526024016113a1565b610c1e83836117b2565b306001600160a01b037f00000000000000000000000000000000000000000000000000000000000000001614610fa35760405163703e46dd60e11b815260040160405180910390fd5b336116c67f9016d09d72d40fdae2fd8ceac6b6234c7706214fd39c1cd1e609a0528c199300546001600160a01b031690565b6001600160a01b031614610fa35760405163118cdaa760e01b81523360048201526024016113a1565b7f9016d09d72d40fdae2fd8ceac6b6234c7706214fd39c1cd1e609a0528c19930080546001600160a01b031981166001600160a01b03848116918217845560405192169182907f8be0079c531659141344cd1fd0a4f28419497f9722a3daafe3b4186f6b6457e090600090a3505050565b611768611808565b6113b381611851565b610fa3611808565b6117838282610fbe565b610c575760405163e2517d3f60e01b81526001600160a01b0382166004820152602481018390526044016113a1565b6117bb82611859565b6040516001600160a01b038316907fbc7cd75a20ee27fd9adebab32041f755214dbc6bffa90cc0225b39da2e5c2d3b90600090a280511561180057610c1e82826118be565b610c57611934565b7ff0c57e16840df040f15088dc2f81fe391c3923bec73e23a9662efc9c229c6a0054600160401b900460ff16610fa357604051631afcd79f60e31b815260040160405180910390fd5b61137b611808565b806001600160a01b03163b60000361188f57604051634c9c8ce360e01b81526001600160a01b03821660048201526024016113a1565b6000805160206121f983398151915280546001600160a01b0319166001600160a01b0392909216919091179055565b6060600080846001600160a01b0316846040516118db91906121dc565b600060405180830381855af49150503d8060008114611916576040519150601f19603f3d011682016040523d82523d6000602084013e61191b565b606091505b509150915061192b858383611953565b95945050505050565b3415610fa35760405163b398979f60e01b815260040160405180910390fd5b60608261196857611963826119b2565b6119ab565b815115801561197f57506001600160a01b0384163b155b156119a857604051639996b31560e01b81526001600160a01b03851660048201526024016113a1565b50805b9392505050565b8051156119c25780518082602001fd5b604051630a12f52160e11b815260040160405180910390fd5b828054828255906000526020600020908101928215611a16579160200282015b82811115611a165782518255916020019190600101906119fb565b50611a22929150611a78565b5090565b828054828255906000526020600020908101928215611a6c579160200282015b82811115611a6c5782518290611a5c90826120e0565b5091602001919060010190611a46565b50611a22929150611a8d565b5b80821115611a225760008155600101611a79565b80821115611a22576000611aa18282611aaa565b50600101611a8d565b508054611ab690612000565b6000825580601f10611ac6575050565b601f0160209004906000526020600020908101906113b39190611a78565b600060208284031215611af657600080fd5b81356001600160e01b0319811681146119ab57600080fd5b600060208284031215611b2057600080fd5b5035919050565b602080825282518282018190526000918401906040840190835b81811015611b5f578351835260209384019390920191600101611b41565b509095945050505050565b60005b83811015611b85578181015183820152602001611b6d565b50506000910152565b60008151808452611ba6816020860160208601611b6a565b601f01601f19169290920160200192915050565b6020815260006119ab6020830184611b8e565b80356001600160a01b0381168114611be457600080fd5b919050565b600080600060608486031215611bfe57600080fd5b83359250611c0e60208501611bcd565b9150604084013590509250925092565b60008060408385031215611c3157600080fd5b82359150611c4160208401611bcd565b90509250929050565b634e487b7160e01b600052604160045260246000fd5b604051608081016001600160401b0381118282101715611c8257611c82611c4a565b60405290565b604051601f8201601f191681016001600160401b0381118282101715611cb057611cb0611c4a565b604052919050565b600082601f830112611cc957600080fd5b81356001600160401b03811115611ce257611ce2611c4a565b611cf5601f8201601f1916602001611c88565b818152846020838601011115611d0a57600080fd5b816020850160208301376000918101602001919091529392505050565b60008060408385031215611d3a57600080fd5b611d4383611bcd565b915060208301356001600160401b03811115611d5e57600080fd5b611d6a85828601611cb8565b9150509250929050565b600060208284031215611d8657600080fd5b6119ab82611bcd565b60008060408385031215611da257600080fd5b611dab83611bcd565b946020939093013593505050565b600082601f830112611dca57600080fd5b81356001600160401b03811115611de357611de3611c4a565b8060051b611df360208201611c88565b91825260208185018101929081019086841115611e0f57600080fd5b6020860192505b83831015611e555782356001600160401b03811115611e3457600080fd5b611e43886020838a0101611cb8565b83525060209283019290910190611e16565b9695505050505050565b600060208284031215611e7157600080fd5b81356001600160401b03811115611e8757600080fd5b820160808185031215611e9957600080fd5b611ea1611c60565b81356001600160401b03811115611eb757600080fd5b611ec386828501611cb8565b82525060208201356001600160401b03811115611edf57600080fd5b611eeb86828501611cb8565b60208301525060408201356001600160401b03811115611f0a57600080fd5b611f1686828501611cb8565b60408301525060608201356001600160401b03811115611f3557600080fd5b611f4186828501611db9565b606083015250949350505050565b60008060408385031215611f6257600080fd5b611f6b83611bcd565b9150611c4160208401611bcd565b60008060408385031215611f8c57600080fd5b50508035926020909101359150565b6000602082016020835280845180835260408501915060408160051b86010192506020860160005b82811015611ff457603f19878603018452611fdf858351611b8e565b94506020938401939190910190600101611fc3565b50929695505050505050565b600181811c9082168061201457607f821691505b60208210810361203457634e487b7160e01b600052602260045260246000fd5b50919050565b634e487b7160e01b600052601160045260246000fd5b8181038181111561070f5761070f61203a565b634e487b7160e01b600052603260045260246000fd5b60006001820161208b5761208b61203a565b5060010190565b601f821115610c1e57806000526020600020601f840160051c810160208510156120b95750805b601f840160051c820191505b818110156120d957600081556001016120c5565b5050505050565b81516001600160401b038111156120f9576120f9611c4a565b61210d816121078454612000565b84612092565b6020601f82116001811461214157600083156121295750848201515b600019600385901b1c1916600184901b1784556120d9565b600084815260208120601f198516915b828110156121715787850151825560209485019460019092019101612151565b508482101561218f5786840151600019600387901b60f8161c191681555b50505050600190811b01905550565b6040815260006121b16040830185611b8e565b828103602084015261192b8185611b8e565b6000602082840312156121d557600080fd5b5051919050565b600082516121ee818460208701611b6a565b919091019291505056fe360894a13ba1a3210667c828492db98dca3e2076cc3735a920a3ca505d382bbc02dd7bc7dec4dceedda775e58dd541e08a116c6c53815c0bd028192f7b626800a2646970667358221220ebd49b336dd6fede66b5aeb4df75239ba05b6685c72937520931a16a442701c964736f6c634300081a0033",
        "linkReferences": {}
    },
    "methodIdentifiers": {
        "DEFAULT_ADMIN_ROLE()": "a217fddf",
        "UPGRADE_INTERFACE_VERSION()": "ad3cb1cc",
        "addToken(bytes32)": "f0cd45ad",
        "closePoll(bytes32)": "60d4fe60",
        "createPoll((bytes,bytes,bytes,bytes[]))": "6902df59",
        "generatePollToken(address,address)": "6fba5738",
        "getNextPollId()": "a3ac528a",
        "getRoleAdmin(bytes32)": "248a9ca3",
        "grantRole(bytes32,address)": "2f2ff15d",
        "hasRole(bytes32,address)": "91d14854",
        "initialize(address)": "c4d66de8",
        "nonces(address)": "7ecebe00",
        "owner()": "8da5cb5b",
        "pollClosed(bytes32)": "327322c8",
        "pollDescription(bytes32)": "38a7a003",
        "pollEmoji(bytes32)": "90ec6179",
        "pollName(bytes32)": "1ca38d1f",
        "pollOptions(bytes32)": "9dd88163",
        "pollOwnerAuthorizedTokenList(address)": "56cc7417",
        "pollOwnerAuthorizedTokens(address,bytes32)": "582a04e3",
        "pollOwners(bytes32)": "9e690bc5",
        "pollTokens(bytes32,bytes32)": "8a5ea124",
        "pollTotalVotes(bytes32)": "cfa579cc",
        "pollVotes(bytes32)": "0711a90d",
        "proxiableUUID()": "52d1902d",
        "removeToken(bytes32)": "224e7462",
        "renounceOwnership()": "715018a6",
        "renounceRole(bytes32,address)": "36568abe",
        "revokeRole(bytes32,address)": "d547741f",
        "supportsInterface(bytes4)": "01ffc9a7",
        "transferOwnership(address)": "f2fde38b",
        "upgradeToAndCall(address,bytes)": "4f1ef286",
        "vote(bytes32,address,uint256)": "25c66de2"
    },
    "id": 36
}