{"abi":[{"type":"function","name":"DEFAULT_ADMIN_ROLE","inputs":[],"outputs":[{"name":"","type":"bytes32","internalType":"bytes32"}],"stateMutability":"view"},{"type":"function","name":"UPGRADE_INTERFACE_VERSION","inputs":[],"outputs":[{"name":"","type":"string","internalType":"string"}],"stateMutability":"view"},{"type":"function","name":"addVoter","inputs":[{"name":"voter","type":"address","internalType":"address"}],"outputs":[],"stateMutability":"nonpayable"},{"type":"function","name":"closePoll","inputs":[{"name":"pollId","type":"bytes32","internalType":"bytes32"}],"outputs":[],"stateMutability":"nonpayable"},{"type":"function","name":"createPoll","inputs":[{"name":"poll","type":"tuple","internalType":"struct Vote.Poll","components":[{"name":"name","type":"bytes","internalType":"bytes"},{"name":"emoji","type":"bytes","internalType":"bytes"},{"name":"description","type":"bytes","internalType":"bytes"},{"name":"options","type":"bytes[]","internalType":"bytes[]"}]}],"outputs":[],"stateMutability":"nonpayable"},{"type":"function","name":"getNextPollId","inputs":[],"outputs":[{"name":"","type":"bytes32","internalType":"bytes32"}],"stateMutability":"view"},{"type":"function","name":"getRoleAdmin","inputs":[{"name":"role","type":"bytes32","internalType":"bytes32"}],"outputs":[{"name":"","type":"bytes32","internalType":"bytes32"}],"stateMutability":"view"},{"type":"function","name":"grantRole","inputs":[{"name":"role","type":"bytes32","internalType":"bytes32"},{"name":"account","type":"address","internalType":"address"}],"outputs":[],"stateMutability":"nonpayable"},{"type":"function","name":"hasRole","inputs":[{"name":"role","type":"bytes32","internalType":"bytes32"},{"name":"account","type":"address","internalType":"address"}],"outputs":[{"name":"","type":"bool","internalType":"bool"}],"stateMutability":"view"},{"type":"function","name":"initialize","inputs":[{"name":"_owner","type":"address","internalType":"address"}],"outputs":[],"stateMutability":"nonpayable"},{"type":"function","name":"nonces","inputs":[{"name":"","type":"address","internalType":"address"}],"outputs":[{"name":"","type":"uint256","internalType":"uint256"}],"stateMutability":"view"},{"type":"function","name":"owner","inputs":[],"outputs":[{"name":"","type":"address","internalType":"address"}],"stateMutability":"view"},{"type":"function","name":"pollClosed","inputs":[{"name":"","type":"bytes32","internalType":"bytes32"}],"outputs":[{"name":"","type":"bool","internalType":"bool"}],"stateMutability":"view"},{"type":"function","name":"pollDescription","inputs":[{"name":"","type":"bytes32","internalType":"bytes32"}],"outputs":[{"name":"","type":"bytes","internalType":"bytes"}],"stateMutability":"view"},{"type":"function","name":"pollEmoji","inputs":[{"name":"","type":"bytes32","internalType":"bytes32"}],"outputs":[{"name":"","type":"bytes","internalType":"bytes"}],"stateMutability":"view"},{"type":"function","name":"pollName","inputs":[{"name":"","type":"bytes32","internalType":"bytes32"}],"outputs":[{"name":"","type":"bytes","internalType":"bytes"}],"stateMutability":"view"},{"type":"function","name":"pollOptions","inputs":[{"name":"","type":"bytes32","internalType":"bytes32"},{"name":"","type":"uint256","internalType":"uint256"}],"outputs":[{"name":"","type":"bytes","internalType":"bytes"}],"stateMutability":"view"},{"type":"function","name":"pollOwnerAuthorizedVoterList","inputs":[{"name":"","type":"address","internalType":"address"},{"name":"","type":"uint256","internalType":"uint256"}],"outputs":[{"name":"","type":"address","internalType":"address"}],"stateMutability":"view"},{"type":"function","name":"pollOwnerAuthorizedVoters","inputs":[{"name":"","type":"address","internalType":"address"},{"name":"","type":"address","internalType":"address"}],"outputs":[{"name":"","type":"bool","internalType":"bool"}],"stateMutability":"view"},{"type":"function","name":"pollOwners","inputs":[{"name":"","type":"bytes32","internalType":"bytes32"}],"outputs":[{"name":"","type":"address","internalType":"address"}],"stateMutability":"view"},{"type":"function","name":"pollTotalVotes","inputs":[{"name":"","type":"bytes32","internalType":"bytes32"}],"outputs":[{"name":"","type":"uint256","internalType":"uint256"}],"stateMutability":"view"},{"type":"function","name":"pollVoters","inputs":[{"name":"","type":"bytes32","internalType":"bytes32"},{"name":"","type":"address","internalType":"address"}],"outputs":[{"name":"","type":"bool","internalType":"bool"}],"stateMutability":"view"},{"type":"function","name":"pollVotes","inputs":[{"name":"","type":"bytes32","internalType":"bytes32"},{"name":"","type":"uint256","internalType":"uint256"}],"outputs":[{"name":"","type":"uint256","internalType":"uint256"}],"stateMutability":"view"},{"type":"function","name":"proxiableUUID","inputs":[],"outputs":[{"name":"","type":"bytes32","internalType":"bytes32"}],"stateMutability":"view"},{"type":"function","name":"removeVoter","inputs":[{"name":"voter","type":"address","internalType":"address"}],"outputs":[],"stateMutability":"nonpayable"},{"type":"function","name":"renounceOwnership","inputs":[],"outputs":[],"stateMutability":"nonpayable"},{"type":"function","name":"renounceRole","inputs":[{"name":"role","type":"bytes32","internalType":"bytes32"},{"name":"callerConfirmation","type":"address","internalType":"address"}],"outputs":[],"stateMutability":"nonpayable"},{"type":"function","name":"revokeRole","inputs":[{"name":"role","type":"bytes32","internalType":"bytes32"},{"name":"account","type":"address","internalType":"address"}],"outputs":[],"stateMutability":"nonpayable"},{"type":"function","name":"supportsInterface","inputs":[{"name":"interfaceId","type":"bytes4","internalType":"bytes4"}],"outputs":[{"name":"","type":"bool","internalType":"bool"}],"stateMutability":"view"},{"type":"function","name":"transferOwnership","inputs":[{"name":"newOwner","type":"address","internalType":"address"}],"outputs":[],"stateMutability":"nonpayable"},{"type":"function","name":"upgradeToAndCall","inputs":[{"name":"newImplementation","type":"address","internalType":"address"},{"name":"data","type":"bytes","internalType":"bytes"}],"outputs":[],"stateMutability":"payable"},{"type":"function","name":"vote","inputs":[{"name":"pollId","type":"bytes32","internalType":"bytes32"},{"name":"optionIndex","type":"uint256","internalType":"uint256"}],"outputs":[],"stateMutability":"nonpayable"},{"type":"event","name":"Initialized","inputs":[{"name":"version","type":"uint64","indexed":false,"internalType":"uint64"}],"anonymous":false},{"type":"event","name":"OwnershipTransferred","inputs":[{"name":"previousOwner","type":"address","indexed":true,"internalType":"address"},{"name":"newOwner","type":"address","indexed":true,"internalType":"address"}],"anonymous":false},{"type":"event","name":"PollClosed","inputs":[{"name":"pollId","type":"bytes32","indexed":true,"internalType":"bytes32"}],"anonymous":false},{"type":"event","name":"PollCreated","inputs":[{"name":"pollId","type":"bytes32","indexed":true,"internalType":"bytes32"},{"name":"name","type":"bytes","indexed":false,"internalType":"bytes"},{"name":"emoji","type":"bytes","indexed":false,"internalType":"bytes"}],"anonymous":false},{"type":"event","name":"PollVoted","inputs":[{"name":"pollId","type":"bytes32","indexed":true,"internalType":"bytes32"},{"name":"optionIndex","type":"uint256","indexed":true,"internalType":"uint256"},{"name":"votes","type":"uint256","indexed":false,"internalType":"uint256"},{"name":"totalVotes","type":"uint256","indexed":false,"internalType":"uint256"}],"anonymous":false},{"type":"event","name":"RoleAdminChanged","inputs":[{"name":"role","type":"bytes32","indexed":true,"internalType":"bytes32"},{"name":"previousAdminRole","type":"bytes32","indexed":true,"internalType":"bytes32"},{"name":"newAdminRole","type":"bytes32","indexed":true,"internalType":"bytes32"}],"anonymous":false},{"type":"event","name":"RoleGranted","inputs":[{"name":"role","type":"bytes32","indexed":true,"internalType":"bytes32"},{"name":"account","type":"address","indexed":true,"internalType":"address"},{"name":"sender","type":"address","indexed":true,"internalType":"address"}],"anonymous":false},{"type":"event","name":"RoleRevoked","inputs":[{"name":"role","type":"bytes32","indexed":true,"internalType":"bytes32"},{"name":"account","type":"address","indexed":true,"internalType":"address"},{"name":"sender","type":"address","indexed":true,"internalType":"address"}],"anonymous":false},{"type":"event","name":"Upgraded","inputs":[{"name":"implementation","type":"address","indexed":true,"internalType":"address"}],"anonymous":false},{"type":"event","name":"VoterAdded","inputs":[{"name":"pollOwner","type":"address","indexed":true,"internalType":"address"},{"name":"voter","type":"address","indexed":true,"internalType":"address"}],"anonymous":false},{"type":"event","name":"VoterRemoved","inputs":[{"name":"pollOwner","type":"address","indexed":true,"internalType":"address"},{"name":"voter","type":"address","indexed":true,"internalType":"address"}],"anonymous":false},{"type":"error","name":"AccessControlBadConfirmation","inputs":[]},{"type":"error","name":"AccessControlUnauthorizedAccount","inputs":[{"name":"account","type":"address","internalType":"address"},{"name":"neededRole","type":"bytes32","internalType":"bytes32"}]},{"type":"error","name":"AddressEmptyCode","inputs":[{"name":"target","type":"address","internalType":"address"}]},{"type":"error","name":"ERC1967InvalidImplementation","inputs":[{"name":"implementation","type":"address","internalType":"address"}]},{"type":"error","name":"ERC1967NonPayable","inputs":[]},{"type":"error","name":"FailedInnerCall","inputs":[]},{"type":"error","name":"InvalidInitialization","inputs":[]},{"type":"error","name":"NotInitializing","inputs":[]},{"type":"error","name":"OwnableInvalidOwner","inputs":[{"name":"owner","type":"address","internalType":"address"}]},{"type":"error","name":"OwnableUnauthorizedAccount","inputs":[{"name":"account","type":"address","internalType":"address"}]},{"type":"error","name":"Poll__OnlyPollAuthorizedVoter","inputs":[]},{"type":"error","name":"Poll__OnlyPollOwner","inputs":[]},{"type":"error","name":"Poll__PollAlreadyClosed","inputs":[]},{"type":"error","name":"Poll__PollAlreadyExists","inputs":[]},{"type":"error","name":"Poll__PollDoesNotExist","inputs":[]},{"type":"error","name":"Poll__VoterAlreadyAuthorized","inputs":[]},{"type":"error","name":"Poll__VoterNotAuthorized","inputs":[]},{"type":"error","name":"UUPSUnauthorizedCallContext","inputs":[]},{"type":"error","name":"UUPSUnsupportedProxiableUUID","inputs":[{"name":"slot","type":"bytes32","internalType":"bytes32"}]}],"bytecode":{"object":"0x60a060405230608052348015601357600080fd5b5060805161204b61003d600039600081816113510152818161137a01526114bb015261204b6000f3fe6080604052600436106101e35760003560e01c80638da5cb5b11610102578063ad3cb1cc11610095578063d547741f11610064578063d547741f14610602578063d9e60c7d14610622578063f2fde38b1461065d578063f4ab9adf1461067d57600080fd5b8063ad3cb1cc14610564578063c4d66de814610595578063c93e9dc6146105b5578063cfa579cc146105d557600080fd5b80639e690bc5116100d15780639e690bc5146104e45780639ef1204c1461051a578063a217fddf1461053a578063a3ac528a1461054f57600080fd5b80638da5cb5b1461044757806390ec61791461048457806391d14854146104a457806392dd7839146104c457600080fd5b80634f1ef2861161017a578063715018a611610149578063715018a6146103ad5780637ecebe00146103c2578063854bb4c1146103ef57806386c1ff681461042757600080fd5b80634f1ef2861461034557806352d1902d1461035857806360d4fe601461036d5780636902df591461038d57600080fd5b8063327322c8116101b6578063327322c81461029a57806333049ced146102ca57806336568abe1461030557806338a7a0031461032557600080fd5b806301ffc9a7146101e85780631ca38d1f1461021d578063248a9ca31461024a5780632f2ff15d14610278575b600080fd5b3480156101f457600080fd5b5061020861020336600461199e565b61069d565b60405190151581526020015b60405180910390f35b34801561022957600080fd5b5061023d6102383660046119c8565b6106d4565b6040516102149190611a31565b34801561025657600080fd5b5061026a6102653660046119c8565b61076e565b604051908152602001610214565b34801561028457600080fd5b50610298610293366004611a60565b610790565b005b3480156102a657600080fd5b506102086102b53660046119c8565b600b6020526000908152604090205460ff1681565b3480156102d657600080fd5b506102086102e5366004611a8c565b600260209081526000928352604080842090915290825290205460ff1681565b34801561031157600080fd5b50610298610320366004611a60565b6107b2565b34801561033157600080fd5b5061023d6103403660046119c8565b6107ea565b610298610353366004611b93565b610803565b34801561036457600080fd5b5061026a610822565b34801561037957600080fd5b506102986103883660046119c8565b61083f565b34801561039957600080fd5b506102986103a8366004611c86565b6108ef565b3480156103b957600080fd5b50610298610a99565b3480156103ce57600080fd5b5061026a6103dd366004611d76565b60006020819052908152604090205481565b3480156103fb57600080fd5b5061040f61040a366004611d91565b610aad565b6040516001600160a01b039091168152602001610214565b34801561043357600080fd5b50610298610442366004611d76565b610ae5565b34801561045357600080fd5b507f9016d09d72d40fdae2fd8ceac6b6234c7706214fd39c1cd1e609a0528c199300546001600160a01b031661040f565b34801561049057600080fd5b5061023d61049f3660046119c8565b610ce3565b3480156104b057600080fd5b506102086104bf366004611a60565b610cfc565b3480156104d057600080fd5b5061023d6104df366004611dbb565b610d34565b3480156104f057600080fd5b5061040f6104ff3660046119c8565b6001602052600090815260409020546001600160a01b031681565b34801561052657600080fd5b50610298610535366004611dbb565b610d6c565b34801561054657600080fd5b5061026a600081565b34801561055b57600080fd5b5061026a610ef5565b34801561057057600080fd5b5061023d604051806040016040528060058152602001640352e302e360dc1b81525081565b3480156105a157600080fd5b506102986105b0366004611d76565b610f56565b3480156105c157600080fd5b5061026a6105d0366004611dbb565b611080565b3480156105e157600080fd5b5061026a6105f03660046119c8565b600a6020526000908152604090205481565b34801561060e57600080fd5b5061029861061d366004611a60565b6110b1565b34801561062e57600080fd5b5061020861063d366004611a60565b600760209081526000928352604080842090915290825290205460ff1681565b34801561066957600080fd5b50610298610678366004611d76565b6110cd565b34801561068957600080fd5b50610298610698366004611d76565b611110565b60006001600160e01b03198216637965db0b60e01b14806106ce57506301ffc9a760e01b6001600160e01b03198316145b92915050565b600460205260009081526040902080546106ed90611ddd565b80601f016020809104026020016040519081016040528092919081815260200182805461071990611ddd565b80156107665780601f1061073b57610100808354040283529160200191610766565b820191906000526020600020905b81548152906001019060200180831161074957829003601f168201915b505050505081565b6000908152600080516020611ff6833981519152602052604090206001015490565b6107998261076e565b6107a28161121b565b6107ac8383611225565b50505050565b6001600160a01b03811633146107db5760405163334bd91960e11b815260040160405180910390fd5b6107e582826112ca565b505050565b600660205260009081526040902080546106ed90611ddd565b61080b611346565b610814826113eb565b61081e82826113f3565b5050565b600061082c6114b0565b50600080516020611fd683398151915290565b60008181526001602052604090205481906001600160a01b031633146108785760405163a816c16960e01b815260040160405180910390fd5b6000828152600b6020526040902054829060ff16156108aa57604051636f8114df60e01b815260040160405180910390fd5b6000838152600b6020526040808220805460ff191660011790555184917f3cb4e963452bc81668658458263ac4fd1214e69daf303dd1589519803751436191a2505050565b60006108f9610ef5565b600081815260086020526040902054909150156109295760405163897787b760e01b815260040160405180910390fd5b81516000828152600460205260409020906109449082611e65565b50602080830151600083815260059092526040909120906109659082611e65565b506040808301516000838152600660205291909120906109859082611e65565b506060820151600082815260086020908152604090912082516109ad93919290910190611840565b508160600151516001600160401b038111156109cb576109cb611ab6565b6040519080825280602002602001820160405280156109f4578160200160208202803683370190505b5060008281526009602090815260409091208251610a189391929190910190611896565b50600081815260016020908152604080832080546001600160a01b031916339081179091558352908290528120805491610a5183611f39565b90915550508151602083015160405183927f06f6285ada46d1a9daed9581f45f3ea56937ae528e486e395858fea5efb25c6192610a8d92611f52565b60405180910390a25050565b610aa16114f9565b610aab6000611554565b565b60036020528160005260406000208181548110610ac957600080fd5b6000918252602090912001546001600160a01b03169150829050565b3360009081526002602090815260408083206001600160a01b038516845290915290205460ff16610b29576040516323cc8af760e11b815260040160405180910390fd5b33600090815260036020526040812054610b4590600190611f77565b6001600160401b03811115610b5c57610b5c611ab6565b604051908082528060200260200182016040528015610b85578160200160208202803683370190505b5090506000805b33600090815260036020526040902054811015610c695733600090815260036020526040902080546001600160a01b038616919083908110610bd057610bd0611f8a565b6000918252602090912001546001600160a01b031614610c6157336000908152600360205260409020805482908110610c0b57610c0b611f8a565b9060005260206000200160009054906101000a90046001600160a01b0316838381518110610c3b57610c3b611f8a565b6001600160a01b039092166020928302919091019091015281610c5d81611f39565b9250505b600101610b8c565b503360009081526003602090815260409091208351610c8a928501906118dd565b503360008181526002602090815260408083206001600160a01b0388168085529252808320805460ff19169055519092917f110ad21bd459fc1df4de6054686bc7dd41775320e802c8b25b21bab9ff1d369f91a3505050565b600560205260009081526040902080546106ed90611ddd565b6000918252600080516020611ff6833981519152602090815260408084206001600160a01b0393909316845291905290205460ff1690565b60086020528160005260406000208181548110610d5057600080fd5b906000526020600020016000915091505080546106ed90611ddd565b6000828152600160209081526040808320546001600160a01b03168084526002835281842033808652935292205460ff16610dba5760405163d13fc4e760e01b815260040160405180910390fd5b6000848152600b6020526040902054849060ff1615610dec57604051636f8114df60e01b815260040160405180910390fd5b6000858152600b602052604090205460ff1615610e1c57604051636f8114df60e01b815260040160405180910390fd5b6000858152600960205260409020805485908110610e3c57610e3c611f8a565b60009182526020822001805491610e5283611f39565b90915550506000858152600a60205260408120805491610e7183611f39565b919050555083857f7e9e652824479d3275a3dd2e6f938f1b4f6b4f10b44ab16e00616cfe79228c1f600960008981526020019081526020016000208781548110610ebd57610ebd611f8a565b60009182526020808320909101548a8352600a8252604092839020548351918252918101919091520160405180910390a35050505050565b3360008181526020818152604080832054905130606090811b6bffffffffffffffffffffffff19908116948301949094529490941b909116603484015260488301529060680160405160208183030381529060405280519060200120905090565b7ff0c57e16840df040f15088dc2f81fe391c3923bec73e23a9662efc9c229c6a008054600160401b810460ff1615906001600160401b0316600081158015610f9b5750825b90506000826001600160401b03166001148015610fb75750303b155b905081158015610fc5575080155b15610fe35760405163f92ee8a960e01b815260040160405180910390fd5b845467ffffffffffffffff19166001178555831561100d57845460ff60401b1916600160401b1785555b611016866115c5565b61101e6115d6565b6110266115d6565b611031600087611225565b50831561107857845460ff60401b19168555604051600181527fc7f505b2f371ae2175ee4913f4499e1f2633a7b5936321eed1cdaeb6115181d29060200160405180910390a15b505050505050565b6009602052816000526040600020818154811061109c57600080fd5b90600052602060002001600091509150505481565b6110ba8261076e565b6110c38161121b565b6107ac83836112ca565b6110d56114f9565b6001600160a01b03811661110457604051631e4fbdf760e01b8152600060048201526024015b60405180910390fd5b61110d81611554565b50565b3360009081526002602090815260408083206001600160a01b038516845290915290205460ff161561115557604051633399795360e11b815260040160405180910390fd5b3360009081526003602052604081205490036111955760408051600080825260208083018085523383526003909152929020905161119392906118dd565b505b3360008181526003602090815260408083208054600180820183559185528385200180546001600160a01b0319166001600160a01b03881690811790915585855260028452828520818652909352818420805460ff19169091179055519092917fb3f3098890c24125ee34ed0aaca590cd36ee4415b25a14d74cef521362a5a43991a350565b61110d81336115de565b6000600080516020611ff68339815191526112408484610cfc565b6112c0576000848152602082815260408083206001600160a01b03871684529091529020805460ff191660011790556112763390565b6001600160a01b0316836001600160a01b0316857f2f8788117e7eff1d82e926ec794901d17c78024a50270940304540a733656f0d60405160405180910390a460019150506106ce565b60009150506106ce565b6000600080516020611ff68339815191526112e58484610cfc565b156112c0576000848152602082815260408083206001600160a01b0387168085529252808320805460ff1916905551339287917ff6391f5c32d9c69d2a47ea670b442974b53935d1edc7fd64eb21e047a839171b9190a460019150506106ce565b306001600160a01b037f00000000000000000000000000000000000000000000000000000000000000001614806113cd57507f00000000000000000000000000000000000000000000000000000000000000006001600160a01b03166113c1600080516020611fd6833981519152546001600160a01b031690565b6001600160a01b031614155b15610aab5760405163703e46dd60e11b815260040160405180910390fd5b61110d6114f9565b816001600160a01b03166352d1902d6040518163ffffffff1660e01b8152600401602060405180830381865afa92505050801561144d575060408051601f3d908101601f1916820190925261144a91810190611fa0565b60015b61147557604051634c9c8ce360e01b81526001600160a01b03831660048201526024016110fb565b600080516020611fd683398151915281146114a657604051632a87526960e21b8152600481018290526024016110fb565b6107e58383611617565b306001600160a01b037f00000000000000000000000000000000000000000000000000000000000000001614610aab5760405163703e46dd60e11b815260040160405180910390fd5b3361152b7f9016d09d72d40fdae2fd8ceac6b6234c7706214fd39c1cd1e609a0528c199300546001600160a01b031690565b6001600160a01b031614610aab5760405163118cdaa760e01b81523360048201526024016110fb565b7f9016d09d72d40fdae2fd8ceac6b6234c7706214fd39c1cd1e609a0528c19930080546001600160a01b031981166001600160a01b03848116918217845560405192169182907f8be0079c531659141344cd1fd0a4f28419497f9722a3daafe3b4186f6b6457e090600090a3505050565b6115cd61166d565b61110d816116b6565b610aab61166d565b6115e88282610cfc565b61081e5760405163e2517d3f60e01b81526001600160a01b0382166004820152602481018390526044016110fb565b611620826116be565b6040516001600160a01b038316907fbc7cd75a20ee27fd9adebab32041f755214dbc6bffa90cc0225b39da2e5c2d3b90600090a2805115611665576107e58282611723565b61081e611799565b7ff0c57e16840df040f15088dc2f81fe391c3923bec73e23a9662efc9c229c6a0054600160401b900460ff16610aab57604051631afcd79f60e31b815260040160405180910390fd5b6110d561166d565b806001600160a01b03163b6000036116f457604051634c9c8ce360e01b81526001600160a01b03821660048201526024016110fb565b600080516020611fd683398151915280546001600160a01b0319166001600160a01b0392909216919091179055565b6060600080846001600160a01b0316846040516117409190611fb9565b600060405180830381855af49150503d806000811461177b576040519150601f19603f3d011682016040523d82523d6000602084013e611780565b606091505b50915091506117908583836117b8565b95945050505050565b3415610aab5760405163b398979f60e01b815260040160405180910390fd5b6060826117cd576117c882611817565b611810565b81511580156117e457506001600160a01b0384163b155b1561180d57604051639996b31560e01b81526001600160a01b03851660048201526024016110fb565b50805b9392505050565b8051156118275780518082602001fd5b604051630a12f52160e11b815260040160405180910390fd5b828054828255906000526020600020908101928215611886579160200282015b8281111561188657825182906118769082611e65565b5091602001919060010190611860565b50611892929150611932565b5090565b8280548282559060005260206000209081019282156118d1579160200282015b828111156118d15782518255916020019190600101906118b6565b5061189292915061194f565b8280548282559060005260206000209081019282156118d1579160200282015b828111156118d157825182546001600160a01b0319166001600160a01b039091161782556020909201916001909101906118fd565b808211156118925760006119468282611964565b50600101611932565b5b808211156118925760008155600101611950565b50805461197090611ddd565b6000825580601f10611980575050565b601f01602090049060005260206000209081019061110d919061194f565b6000602082840312156119b057600080fd5b81356001600160e01b03198116811461181057600080fd5b6000602082840312156119da57600080fd5b5035919050565b60005b838110156119fc5781810151838201526020016119e4565b50506000910152565b60008151808452611a1d8160208601602086016119e1565b601f01601f19169290920160200192915050565b6020815260006118106020830184611a05565b80356001600160a01b0381168114611a5b57600080fd5b919050565b60008060408385031215611a7357600080fd5b82359150611a8360208401611a44565b90509250929050565b60008060408385031215611a9f57600080fd5b611aa883611a44565b9150611a8360208401611a44565b634e487b7160e01b600052604160045260246000fd5b604051608081016001600160401b0381118282101715611aee57611aee611ab6565b60405290565b604051601f8201601f191681016001600160401b0381118282101715611b1c57611b1c611ab6565b604052919050565b600082601f830112611b3557600080fd5b81356001600160401b03811115611b4e57611b4e611ab6565b611b61601f8201601f1916602001611af4565b818152846020838601011115611b7657600080fd5b816020850160208301376000918101602001919091529392505050565b60008060408385031215611ba657600080fd5b611baf83611a44565b915060208301356001600160401b03811115611bca57600080fd5b611bd685828601611b24565b9150509250929050565b600082601f830112611bf157600080fd5b81356001600160401b03811115611c0a57611c0a611ab6565b8060051b611c1a60208201611af4565b91825260208185018101929081019086841115611c3657600080fd5b6020860192505b83831015611c7c5782356001600160401b03811115611c5b57600080fd5b611c6a886020838a0101611b24565b83525060209283019290910190611c3d565b9695505050505050565b600060208284031215611c9857600080fd5b81356001600160401b03811115611cae57600080fd5b820160808185031215611cc057600080fd5b611cc8611acc565b81356001600160401b03811115611cde57600080fd5b611cea86828501611b24565b82525060208201356001600160401b03811115611d0657600080fd5b611d1286828501611b24565b60208301525060408201356001600160401b03811115611d3157600080fd5b611d3d86828501611b24565b60408301525060608201356001600160401b03811115611d5c57600080fd5b611d6886828501611be0565b606083015250949350505050565b600060208284031215611d8857600080fd5b61181082611a44565b60008060408385031215611da457600080fd5b611dad83611a44565b946020939093013593505050565b60008060408385031215611dce57600080fd5b50508035926020909101359150565b600181811c90821680611df157607f821691505b602082108103611e1157634e487b7160e01b600052602260045260246000fd5b50919050565b601f8211156107e557806000526020600020601f840160051c81016020851015611e3e5750805b601f840160051c820191505b81811015611e5e5760008155600101611e4a565b5050505050565b81516001600160401b03811115611e7e57611e7e611ab6565b611e9281611e8c8454611ddd565b84611e17565b6020601f821160018114611ec65760008315611eae5750848201515b600019600385901b1c1916600184901b178455611e5e565b600084815260208120601f198516915b82811015611ef65787850151825560209485019460019092019101611ed6565b5084821015611f145786840151600019600387901b60f8161c191681555b50505050600190811b01905550565b634e487b7160e01b600052601160045260246000fd5b600060018201611f4b57611f4b611f23565b5060010190565b604081526000611f656040830185611a05565b82810360208401526117908185611a05565b818103818111156106ce576106ce611f23565b634e487b7160e01b600052603260045260246000fd5b600060208284031215611fb257600080fd5b5051919050565b60008251611fcb8184602087016119e1565b919091019291505056fe360894a13ba1a3210667c828492db98dca3e2076cc3735a920a3ca505d382bbc02dd7bc7dec4dceedda775e58dd541e08a116c6c53815c0bd028192f7b626800a2646970667358221220fabc6c509aa8714da65d3ae5e337d33c39e3d753fd37e4513c5d1cf1953caea264736f6c634300081a0033","linkReferences":{}},"methodIdentifiers":{"DEFAULT_ADMIN_ROLE()":"a217fddf","UPGRADE_INTERFACE_VERSION()":"ad3cb1cc","addVoter(address)":"f4ab9adf","closePoll(bytes32)":"60d4fe60","createPoll((bytes,bytes,bytes,bytes[]))":"6902df59","getNextPollId()":"a3ac528a","getRoleAdmin(bytes32)":"248a9ca3","grantRole(bytes32,address)":"2f2ff15d","hasRole(bytes32,address)":"91d14854","initialize(address)":"c4d66de8","nonces(address)":"7ecebe00","owner()":"8da5cb5b","pollClosed(bytes32)":"327322c8","pollDescription(bytes32)":"38a7a003","pollEmoji(bytes32)":"90ec6179","pollName(bytes32)":"1ca38d1f","pollOptions(bytes32,uint256)":"92dd7839","pollOwnerAuthorizedVoterList(address,uint256)":"854bb4c1","pollOwnerAuthorizedVoters(address,address)":"33049ced","pollOwners(bytes32)":"9e690bc5","pollTotalVotes(bytes32)":"cfa579cc","pollVoters(bytes32,address)":"d9e60c7d","pollVotes(bytes32,uint256)":"c93e9dc6","proxiableUUID()":"52d1902d","removeVoter(address)":"86c1ff68","renounceOwnership()":"715018a6","renounceRole(bytes32,address)":"36568abe","revokeRole(bytes32,address)":"d547741f","supportsInterface(bytes4)":"01ffc9a7","transferOwnership(address)":"f2fde38b","upgradeToAndCall(address,bytes)":"4f1ef286","vote(bytes32,uint256)":"9ef1204c"},"id":36}